{"abi":[{"inputs":[{"internalType":"uint256","name":"_minimumContribution","type":"uint256"},{"internalType":"address","name":"campaignCreator","type":"address"}],"stateMutability":"nonpayable","type":"constructor"},{"inputs":[{"internalType":"uint256","name":"requestIndex","type":"uint256"}],"name":"approveSpendingRequest","outputs":[],"stateMutability":"nonpayable","type":"function"},{"inputs":[{"internalType":"address","name":"","type":"address"}],"name":"campaignContributors","outputs":[{"internalType":"bool","name":"","type":"bool"}],"stateMutability":"view","type":"function"},{"inputs":[],"name":"campaignContributorsCount","outputs":[{"internalType":"uint256","name":"","type":"uint256"}],"stateMutability":"view","type":"function"},{"inputs":[],"name":"campaignManager","outputs":[{"internalType":"address","name":"","type":"address"}],"stateMutability":"view","type":"function"},{"inputs":[],"name":"contribute","outputs":[],"stateMutability":"payable","type":"function"},{"inputs":[{"internalType":"string","name":"description","type":"string"},{"internalType":"uint256","name":"value","type":"uint256"},{"internalType":"address payable","name":"recipient","type":"address"}],"name":"createSpendingRequest","outputs":[],"stateMutability":"nonpayable","type":"function"},{"inputs":[{"internalType":"uint256","name":"requestIndex","type":"uint256"}],"name":"finalizeSpendingRequest","outputs":[],"stateMutability":"nonpayable","type":"function"},{"inputs":[],"name":"getCampaignSummary","outputs":[{"internalType":"uint256","name":"","type":"uint256"},{"internalType":"uint256","name":"","type":"uint256"},{"internalType":"uint256","name":"","type":"uint256"},{"internalType":"uint256","name":"","type":"uint256"},{"internalType":"address","name":"","type":"address"}],"stateMutability":"view","type":"function"},{"inputs":[],"name":"getRequestsCount","outputs":[{"internalType":"uint256","name":"","type":"uint256"}],"stateMutability":"view","type":"function"},{"inputs":[],"name":"minimumContribution","outputs":[{"internalType":"uint256","name":"","type":"uint256"}],"stateMutability":"view","type":"function"},{"inputs":[{"internalType":"uint256","name":"","type":"uint256"}],"name":"requests","outputs":[{"internalType":"string","name":"description","type":"string"},{"internalType":"uint256","name":"value","type":"uint256"},{"internalType":"address payable","name":"recipient","type":"address"},{"internalType":"bool","name":"complete","type":"bool"},{"internalType":"uint256","name":"approvalCount","type":"uint256"}],"stateMutability":"view","type":"function"}],"devdoc":{"kind":"dev","methods":{},"version":1},"evm":{"assembly":"    /* \"Campaign.sol\":458:3103  contract Campaign {... */\n  mstore(0x40, 0x80)\n    /* \"Campaign.sol\":1023:1192  constructor(uint256 _minimumContribution, address campaignCreator) {... */\n  callvalue\n  dup1\n  iszero\n  tag_1\n  jumpi\n  0x00\n  dup1\n  revert\ntag_1:\n  pop\n  mload(0x40)\n  sub(codesize, bytecodeSize)\n  dup1\n  bytecodeSize\n  dup4\n  codecopy\n  dup2\n  dup2\n  add\n  0x40\n  mstore\n  dup2\n  add\n  swap1\n  tag_2\n  swap2\n  swap1\n  tag_3\n  jump\t// in\ntag_2:\n    /* \"Campaign.sol\":1118:1133  campaignCreator */\n  dup1\n    /* \"Campaign.sol\":1100:1115  campaignManager */\n  0x01\n  0x00\n    /* \"Campaign.sol\":1100:1133  campaignManager = campaignCreator */\n  0x0100\n  exp\n  dup2\n  sload\n  dup2\n  0xffffffffffffffffffffffffffffffffffffffff\n  mul\n  not\n  and\n  swap1\n  dup4\n  0xffffffffffffffffffffffffffffffffffffffff\n  and\n  mul\n  or\n  swap1\n  sstore\n  pop\n    /* \"Campaign.sol\":1165:1185  _minimumContribution */\n  dup2\n    /* \"Campaign.sol\":1143:1162  minimumContribution */\n  0x02\n    /* \"Campaign.sol\":1143:1185  minimumContribution = _minimumContribution */\n  dup2\n  swap1\n  sstore\n  pop\n    /* \"Campaign.sol\":1023:1192  constructor(uint256 _minimumContribution, address campaignCreator) {... */\n  pop\n  pop\n    /* \"Campaign.sol\":458:3103  contract Campaign {... */\n  jump(tag_6)\n    /* \"#utility.yul\":7:150   */\ntag_8:\n  0x00\n    /* \"#utility.yul\":95:101   */\n  dup2\n    /* \"#utility.yul\":89:102   */\n  mload\n    /* \"#utility.yul\":80:102   */\n  swap1\n  pop\n    /* \"#utility.yul\":111:144   */\n  tag_10\n    /* \"#utility.yul\":138:143   */\n  dup2\n    /* \"#utility.yul\":111:144   */\n  tag_11\n  jump\t// in\ntag_10:\n    /* \"#utility.yul\":70:150   */\n  swap3\n  swap2\n  pop\n  pop\n  jump\t// out\n    /* \"#utility.yul\":156:299   */\ntag_12:\n  0x00\n    /* \"#utility.yul\":244:250   */\n  dup2\n    /* \"#utility.yul\":238:251   */\n  mload\n    /* \"#utility.yul\":229:251   */\n  swap1\n  pop\n    /* \"#utility.yul\":260:293   */\n  tag_14\n    /* \"#utility.yul\":287:292   */\n  dup2\n    /* \"#utility.yul\":260:293   */\n  tag_15\n  jump\t// in\ntag_14:\n    /* \"#utility.yul\":219:299   */\n  swap3\n  swap2\n  pop\n  pop\n  jump\t// out\n    /* \"#utility.yul\":305:745   */\ntag_3:\n  0x00\n  dup1\n    /* \"#utility.yul\":441:443   */\n  0x40\n    /* \"#utility.yul\":429:438   */\n  dup4\n    /* \"#utility.yul\":420:427   */\n  dup6\n    /* \"#utility.yul\":416:439   */\n  sub\n    /* \"#utility.yul\":412:444   */\n  slt\n    /* \"#utility.yul\":409:411   */\n  iszero\n  tag_17\n  jumpi\n    /* \"#utility.yul\":457:458   */\n  0x00\n    /* \"#utility.yul\":454:455   */\n  dup1\n    /* \"#utility.yul\":447:459   */\n  revert\n    /* \"#utility.yul\":409:411   */\ntag_17:\n    /* \"#utility.yul\":500:501   */\n  0x00\n    /* \"#utility.yul\":525:589   */\n  tag_18\n    /* \"#utility.yul\":581:588   */\n  dup6\n    /* \"#utility.yul\":572:578   */\n  dup3\n    /* \"#utility.yul\":561:570   */\n  dup7\n    /* \"#utility.yul\":557:579   */\n  add\n    /* \"#utility.yul\":525:589   */\n  tag_12\n  jump\t// in\ntag_18:\n    /* \"#utility.yul\":515:589   */\n  swap3\n  pop\n    /* \"#utility.yul\":471:599   */\n  pop\n    /* \"#utility.yul\":638:640   */\n  0x20\n    /* \"#utility.yul\":664:728   */\n  tag_19\n    /* \"#utility.yul\":720:727   */\n  dup6\n    /* \"#utility.yul\":711:717   */\n  dup3\n    /* \"#utility.yul\":700:709   */\n  dup7\n    /* \"#utility.yul\":696:718   */\n  add\n    /* \"#utility.yul\":664:728   */\n  tag_8\n  jump\t// in\ntag_19:\n    /* \"#utility.yul\":654:728   */\n  swap2\n  pop\n    /* \"#utility.yul\":609:738   */\n  pop\n    /* \"#utility.yul\":399:745   */\n  swap3\n  pop\n  swap3\n  swap1\n  pop\n  jump\t// out\n    /* \"#utility.yul\":751:847   */\ntag_20:\n  0x00\n    /* \"#utility.yul\":817:841   */\n  tag_22\n    /* \"#utility.yul\":835:840   */\n  dup3\n    /* \"#utility.yul\":817:841   */\n  tag_23\n  jump\t// in\ntag_22:\n    /* \"#utility.yul\":806:841   */\n  swap1\n  pop\n    /* \"#utility.yul\":796:847   */\n  swap2\n  swap1\n  pop\n  jump\t// out\n    /* \"#utility.yul\":853:979   */\ntag_23:\n  0x00\n    /* \"#utility.yul\":930:972   */\n  0xffffffffffffffffffffffffffffffffffffffff\n    /* \"#utility.yul\":923:928   */\n  dup3\n    /* \"#utility.yul\":919:973   */\n  and\n    /* \"#utility.yul\":908:973   */\n  swap1\n  pop\n    /* \"#utility.yul\":898:979   */\n  swap2\n  swap1\n  pop\n  jump\t// out\n    /* \"#utility.yul\":985:1062   */\ntag_25:\n  0x00\n    /* \"#utility.yul\":1051:1056   */\n  dup2\n    /* \"#utility.yul\":1040:1056   */\n  swap1\n  pop\n    /* \"#utility.yul\":1030:1062   */\n  swap2\n  swap1\n  pop\n  jump\t// out\n    /* \"#utility.yul\":1068:1190   */\ntag_11:\n    /* \"#utility.yul\":1141:1165   */\n  tag_28\n    /* \"#utility.yul\":1159:1164   */\n  dup2\n    /* \"#utility.yul\":1141:1165   */\n  tag_20\n  jump\t// in\ntag_28:\n    /* \"#utility.yul\":1134:1139   */\n  dup2\n    /* \"#utility.yul\":1131:1166   */\n  eq\n    /* \"#utility.yul\":1121:1123   */\n  tag_29\n  jumpi\n    /* \"#utility.yul\":1180:1181   */\n  0x00\n    /* \"#utility.yul\":1177:1178   */\n  dup1\n    /* \"#utility.yul\":1170:1182   */\n  revert\n    /* \"#utility.yul\":1121:1123   */\ntag_29:\n    /* \"#utility.yul\":1111:1190   */\n  pop\n  jump\t// out\n    /* \"#utility.yul\":1196:1318   */\ntag_15:\n    /* \"#utility.yul\":1269:1293   */\n  tag_31\n    /* \"#utility.yul\":1287:1292   */\n  dup2\n    /* \"#utility.yul\":1269:1293   */\n  tag_25\n  jump\t// in\ntag_31:\n    /* \"#utility.yul\":1262:1267   */\n  dup2\n    /* \"#utility.yul\":1259:1294   */\n  eq\n    /* \"#utility.yul\":1249:1251   */\n  tag_32\n  jumpi\n    /* \"#utility.yul\":1308:1309   */\n  0x00\n    /* \"#utility.yul\":1305:1306   */\n  dup1\n    /* \"#utility.yul\":1298:1310   */\n  revert\n    /* \"#utility.yul\":1249:1251   */\ntag_32:\n    /* \"#utility.yul\":1239:1318   */\n  pop\n  jump\t// out\n    /* \"Campaign.sol\":458:3103  contract Campaign {... */\ntag_6:\n  dataSize(sub_0)\n  dup1\n  dataOffset(sub_0)\n  0x00\n  codecopy\n  0x00\n  return\nstop\n\nsub_0: assembly {\n        /* \"Campaign.sol\":458:3103  contract Campaign {... */\n      mstore(0x40, 0x80)\n      jumpi(tag_1, lt(calldatasize, 0x04))\n      shr(0xe0, calldataload(0x00))\n      dup1\n      0x8810c6d9\n      gt\n      tag_13\n      jumpi\n      dup1\n      0x8810c6d9\n      eq\n      tag_7\n      jumpi\n      dup1\n      0x937e09b1\n      eq\n      tag_8\n      jumpi\n      dup1\n      0xa00c96d7\n      eq\n      tag_9\n      jumpi\n      dup1\n      0xd7bb99ba\n      eq\n      tag_10\n      jumpi\n      dup1\n      0xeb7c9919\n      eq\n      tag_11\n      jumpi\n      dup1\n      0xfb5e76e6\n      eq\n      tag_12\n      jumpi\n      jump(tag_1)\n    tag_13:\n      dup1\n      0x2a76083b\n      eq\n      tag_2\n      jumpi\n      dup1\n      0x3410452a\n      eq\n      tag_3\n      jumpi\n      dup1\n      0x5f875bcd\n      eq\n      tag_4\n      jumpi\n      dup1\n      0x6cf87862\n      eq\n      tag_5\n      jumpi\n      dup1\n      0x81d12c58\n      eq\n      tag_6\n      jumpi\n    tag_1:\n      0x00\n      dup1\n      revert\n        /* \"Campaign.sol\":882:922  uint256 public campaignContributorsCount */\n    tag_2:\n      callvalue\n      dup1\n      iszero\n      tag_14\n      jumpi\n      0x00\n      dup1\n      revert\n    tag_14:\n      pop\n      tag_15\n      tag_16\n      jump\t// in\n    tag_15:\n      mload(0x40)\n      tag_17\n      swap2\n      swap1\n      tag_18\n      jump\t// in\n    tag_17:\n      mload(0x40)\n      dup1\n      swap2\n      sub\n      swap1\n      return\n        /* \"Campaign.sol\":3004:3101  function getRequestsCount() public view returns (uint256) {... */\n    tag_3:\n      callvalue\n      dup1\n      iszero\n      tag_19\n      jumpi\n      0x00\n      dup1\n      revert\n    tag_19:\n      pop\n      tag_20\n      tag_21\n      jump\t// in\n    tag_20:\n      mload(0x40)\n      tag_22\n      swap2\n      swap1\n      tag_18\n      jump\t// in\n    tag_22:\n      mload(0x40)\n      dup1\n      swap2\n      sub\n      swap1\n      return\n        /* \"Campaign.sol\":2175:2599  function finalizeSpendingRequest(uint256 requestIndex) public restricted {... */\n    tag_4:\n      callvalue\n      dup1\n      iszero\n      tag_23\n      jumpi\n      0x00\n      dup1\n      revert\n    tag_23:\n      pop\n      tag_24\n      0x04\n      dup1\n      calldatasize\n      sub\n      dup2\n      add\n      swap1\n      tag_25\n      swap2\n      swap1\n      tag_26\n      jump\t// in\n    tag_25:\n      tag_27\n      jump\t// in\n    tag_24:\n      stop\n        /* \"Campaign.sol\":1804:2169  function approveSpendingRequest(uint256 requestIndex) public {... */\n    tag_5:\n      callvalue\n      dup1\n      iszero\n      tag_28\n      jumpi\n      0x00\n      dup1\n      revert\n    tag_28:\n      pop\n      tag_29\n      0x04\n      dup1\n      calldatasize\n      sub\n      dup2\n      add\n      swap1\n      tag_30\n      swap2\n      swap1\n      tag_26\n      jump\t// in\n    tag_30:\n      tag_31\n      jump\t// in\n    tag_29:\n      stop\n        /* \"Campaign.sol\":709:742  SpendingRequest[] public requests */\n    tag_6:\n      callvalue\n      dup1\n      iszero\n      tag_32\n      jumpi\n      0x00\n      dup1\n      revert\n    tag_32:\n      pop\n      tag_33\n      0x04\n      dup1\n      calldatasize\n      sub\n      dup2\n      add\n      swap1\n      tag_34\n      swap2\n      swap1\n      tag_26\n      jump\t// in\n    tag_34:\n      tag_35\n      jump\t// in\n    tag_33:\n      mload(0x40)\n      tag_36\n      swap6\n      swap5\n      swap4\n      swap3\n      swap2\n      swap1\n      tag_37\n      jump\t// in\n    tag_36:\n      mload(0x40)\n      dup1\n      swap2\n      sub\n      swap1\n      return\n        /* \"Campaign.sol\":1384:1798  function createSpendingRequest(... */\n    tag_7:\n      callvalue\n      dup1\n      iszero\n      tag_38\n      jumpi\n      0x00\n      dup1\n      revert\n    tag_38:\n      pop\n      tag_39\n      0x04\n      dup1\n      calldatasize\n      sub\n      dup2\n      add\n      swap1\n      tag_40\n      swap2\n      swap1\n      tag_41\n      jump\t// in\n    tag_40:\n      tag_42\n      jump\t// in\n    tag_39:\n      stop\n        /* \"Campaign.sol\":784:818  uint256 public minimumContribution */\n    tag_8:\n      callvalue\n      dup1\n      iszero\n      tag_43\n      jumpi\n      0x00\n      dup1\n      revert\n    tag_43:\n      pop\n      tag_44\n      tag_45\n      jump\t// in\n    tag_44:\n      mload(0x40)\n      tag_46\n      swap2\n      swap1\n      tag_18\n      jump\t// in\n    tag_46:\n      mload(0x40)\n      dup1\n      swap2\n      sub\n      swap1\n      return\n        /* \"Campaign.sol\":2605:2998  function getCampaignSummary()... */\n    tag_9:\n      callvalue\n      dup1\n      iszero\n      tag_47\n      jumpi\n      0x00\n      dup1\n      revert\n    tag_47:\n      pop\n      tag_48\n      tag_49\n      jump\t// in\n    tag_48:\n      mload(0x40)\n      tag_50\n      swap6\n      swap5\n      swap4\n      swap3\n      swap2\n      swap1\n      tag_51\n      jump\t// in\n    tag_50:\n      mload(0x40)\n      dup1\n      swap2\n      sub\n      swap1\n      return\n        /* \"Campaign.sol\":1198:1378  function contribute() public payable {... */\n    tag_10:\n      tag_52\n      tag_53\n      jump\t// in\n    tag_52:\n      stop\n        /* \"Campaign.sol\":824:876  mapping(address => bool) public campaignContributors */\n    tag_11:\n      callvalue\n      dup1\n      iszero\n      tag_54\n      jumpi\n      0x00\n      dup1\n      revert\n    tag_54:\n      pop\n      tag_55\n      0x04\n      dup1\n      calldatasize\n      sub\n      dup2\n      add\n      swap1\n      tag_56\n      swap2\n      swap1\n      tag_57\n      jump\t// in\n    tag_56:\n      tag_58\n      jump\t// in\n    tag_55:\n      mload(0x40)\n      tag_59\n      swap2\n      swap1\n      tag_60\n      jump\t// in\n    tag_59:\n      mload(0x40)\n      dup1\n      swap2\n      sub\n      swap1\n      return\n        /* \"Campaign.sol\":748:778  address public campaignManager */\n    tag_12:\n      callvalue\n      dup1\n      iszero\n      tag_61\n      jumpi\n      0x00\n      dup1\n      revert\n    tag_61:\n      pop\n      tag_62\n      tag_63\n      jump\t// in\n    tag_62:\n      mload(0x40)\n      tag_64\n      swap2\n      swap1\n      tag_65\n      jump\t// in\n    tag_64:\n      mload(0x40)\n      dup1\n      swap2\n      sub\n      swap1\n      return\n        /* \"Campaign.sol\":882:922  uint256 public campaignContributorsCount */\n    tag_16:\n      sload(0x04)\n      dup2\n      jump\t// out\n        /* \"Campaign.sol\":3004:3101  function getRequestsCount() public view returns (uint256) {... */\n    tag_21:\n        /* \"Campaign.sol\":3053:3060  uint256 */\n      0x00\n        /* \"Campaign.sol\":3079:3087  requests */\n      dup1\n        /* \"Campaign.sol\":3079:3094  requests.length */\n      dup1\n      sload\n      swap1\n      pop\n        /* \"Campaign.sol\":3072:3094  return requests.length */\n      swap1\n      pop\n        /* \"Campaign.sol\":3004:3101  function getRequestsCount() public view returns (uint256) {... */\n      swap1\n      jump\t// out\n        /* \"Campaign.sol\":2175:2599  function finalizeSpendingRequest(uint256 requestIndex) public restricted {... */\n    tag_27:\n        /* \"Campaign.sol\":983:998  campaignManager */\n      0x01\n      0x00\n      swap1\n      sload\n      swap1\n      0x0100\n      exp\n      swap1\n      div\n      0xffffffffffffffffffffffffffffffffffffffff\n      and\n        /* \"Campaign.sol\":969:998  msg.sender == campaignManager */\n      0xffffffffffffffffffffffffffffffffffffffff\n      and\n        /* \"Campaign.sol\":969:979  msg.sender */\n      caller\n        /* \"Campaign.sol\":969:998  msg.sender == campaignManager */\n      0xffffffffffffffffffffffffffffffffffffffff\n      and\n      eq\n        /* \"Campaign.sol\":961:999  require(msg.sender == campaignManager) */\n      tag_68\n      jumpi\n      0x00\n      dup1\n      revert\n    tag_68:\n        /* \"Campaign.sol\":2258:2299  SpendingRequest storage requestToFinalize */\n      0x00\n        /* \"Campaign.sol\":2302:2310  requests */\n      dup1\n        /* \"Campaign.sol\":2311:2323  requestIndex */\n      dup3\n        /* \"Campaign.sol\":2302:2324  requests[requestIndex] */\n      dup2\n      sload\n      dup2\n      lt\n      tag_70\n      jumpi\n      mstore(0x00, 0x4e487b7100000000000000000000000000000000000000000000000000000000)\n      mstore(0x04, 0x32)\n      revert(0x00, 0x24)\n    tag_70:\n      swap1\n      0x00\n      mstore\n      keccak256(0x00, 0x20)\n      swap1\n      0x05\n      mul\n      add\n        /* \"Campaign.sol\":2258:2324  SpendingRequest storage requestToFinalize = requests[requestIndex] */\n      swap1\n      pop\n        /* \"Campaign.sol\":2419:2420  2 */\n      0x02\n        /* \"Campaign.sol\":2391:2416  campaignContributorsCount */\n      sload(0x04)\n        /* \"Campaign.sol\":2391:2420  campaignContributorsCount / 2 */\n      tag_72\n      swap2\n      swap1\n      tag_73\n      jump\t// in\n    tag_72:\n        /* \"Campaign.sol\":2356:2373  requestToFinalize */\n      dup2\n        /* \"Campaign.sol\":2356:2387  requestToFinalize.approvalCount */\n      0x03\n      add\n      sload\n        /* \"Campaign.sol\":2356:2421  requestToFinalize.approvalCount > (campaignContributorsCount / 2) */\n      gt\n        /* \"Campaign.sol\":2335:2431  require(... */\n      tag_74\n      jumpi\n      0x00\n      dup1\n      revert\n    tag_74:\n        /* \"Campaign.sol\":2450:2467  requestToFinalize */\n      dup1\n        /* \"Campaign.sol\":2450:2476  requestToFinalize.complete */\n      0x02\n      add\n      0x14\n      swap1\n      sload\n      swap1\n      0x0100\n      exp\n      swap1\n      div\n      0xff\n      and\n        /* \"Campaign.sol\":2449:2476  !requestToFinalize.complete */\n      iszero\n        /* \"Campaign.sol\":2441:2477  require(!requestToFinalize.complete) */\n      tag_75\n      jumpi\n      0x00\n      dup1\n      revert\n    tag_75:\n        /* \"Campaign.sol\":2488:2505  requestToFinalize */\n      dup1\n        /* \"Campaign.sol\":2488:2515  requestToFinalize.recipient */\n      0x02\n      add\n      0x00\n      swap1\n      sload\n      swap1\n      0x0100\n      exp\n      swap1\n      div\n      0xffffffffffffffffffffffffffffffffffffffff\n      and\n        /* \"Campaign.sol\":2488:2524  requestToFinalize.recipient.transfer */\n      0xffffffffffffffffffffffffffffffffffffffff\n      and\n        /* \"Campaign.sol\":2488:2549  requestToFinalize.recipient.transfer(requestToFinalize.value) */\n      0x08fc\n        /* \"Campaign.sol\":2525:2542  requestToFinalize */\n      dup3\n        /* \"Campaign.sol\":2525:2548  requestToFinalize.value */\n      0x01\n      add\n      sload\n        /* \"Campaign.sol\":2488:2549  requestToFinalize.recipient.transfer(requestToFinalize.value) */\n      swap1\n      dup2\n      iszero\n      mul\n      swap1\n      mload(0x40)\n      0x00\n      mload(0x40)\n      dup1\n      dup4\n      sub\n      dup2\n      dup6\n      dup9\n      dup9\n      call\n      swap4\n      pop\n      pop\n      pop\n      pop\n      iszero\n      dup1\n      iszero\n      tag_77\n      jumpi\n      returndatasize\n      0x00\n      dup1\n      returndatacopy\n      revert(0x00, returndatasize)\n    tag_77:\n      pop\n        /* \"Campaign.sol\":2588:2592  true */\n      0x01\n        /* \"Campaign.sol\":2559:2576  requestToFinalize */\n      dup2\n        /* \"Campaign.sol\":2559:2585  requestToFinalize.complete */\n      0x02\n      add\n      0x14\n        /* \"Campaign.sol\":2559:2592  requestToFinalize.complete = true */\n      0x0100\n      exp\n      dup2\n      sload\n      dup2\n      0xff\n      mul\n      not\n      and\n      swap1\n      dup4\n      iszero\n      iszero\n      mul\n      or\n      swap1\n      sstore\n      pop\n        /* \"Campaign.sol\":1009:1010  _ */\n      pop\n        /* \"Campaign.sol\":2175:2599  function finalizeSpendingRequest(uint256 requestIndex) public restricted {... */\n      pop\n      jump\t// out\n        /* \"Campaign.sol\":1804:2169  function approveSpendingRequest(uint256 requestIndex) public {... */\n    tag_31:\n        /* \"Campaign.sol\":1875:1915  SpendingRequest storage requestToApprove */\n      0x00\n        /* \"Campaign.sol\":1918:1926  requests */\n      dup1\n        /* \"Campaign.sol\":1927:1939  requestIndex */\n      dup3\n        /* \"Campaign.sol\":1918:1940  requests[requestIndex] */\n      dup2\n      sload\n      dup2\n      lt\n      tag_79\n      jumpi\n      mstore(0x00, 0x4e487b7100000000000000000000000000000000000000000000000000000000)\n      mstore(0x04, 0x32)\n      revert(0x00, 0x24)\n    tag_79:\n      swap1\n      0x00\n      mstore\n      keccak256(0x00, 0x20)\n      swap1\n      0x05\n      mul\n      add\n        /* \"Campaign.sol\":1875:1940  SpendingRequest storage requestToApprove = requests[requestIndex] */\n      swap1\n      pop\n        /* \"Campaign.sol\":1959:1979  campaignContributors */\n      0x03\n        /* \"Campaign.sol\":1959:1991  campaignContributors[msg.sender] */\n      0x00\n        /* \"Campaign.sol\":1980:1990  msg.sender */\n      caller\n        /* \"Campaign.sol\":1959:1991  campaignContributors[msg.sender] */\n      0xffffffffffffffffffffffffffffffffffffffff\n      and\n      0xffffffffffffffffffffffffffffffffffffffff\n      and\n      dup2\n      mstore\n      0x20\n      add\n      swap1\n      dup2\n      mstore\n      0x20\n      add\n      0x00\n      keccak256\n      0x00\n      swap1\n      sload\n      swap1\n      0x0100\n      exp\n      swap1\n      div\n      0xff\n      and\n        /* \"Campaign.sol\":1951:1992  require(campaignContributors[msg.sender]) */\n      tag_81\n      jumpi\n      0x00\n      dup1\n      revert\n    tag_81:\n        /* \"Campaign.sol\":2011:2027  requestToApprove */\n      dup1\n        /* \"Campaign.sol\":2011:2044  requestToApprove.requestApprovers */\n      0x04\n      add\n        /* \"Campaign.sol\":2011:2056  requestToApprove.requestApprovers[msg.sender] */\n      0x00\n        /* \"Campaign.sol\":2045:2055  msg.sender */\n      caller\n        /* \"Campaign.sol\":2011:2056  requestToApprove.requestApprovers[msg.sender] */\n      0xffffffffffffffffffffffffffffffffffffffff\n      and\n      0xffffffffffffffffffffffffffffffffffffffff\n      and\n      dup2\n      mstore\n      0x20\n      add\n      swap1\n      dup2\n      mstore\n      0x20\n      add\n      0x00\n      keccak256\n      0x00\n      swap1\n      sload\n      swap1\n      0x0100\n      exp\n      swap1\n      div\n      0xff\n      and\n        /* \"Campaign.sol\":2010:2056  !requestToApprove.requestApprovers[msg.sender] */\n      iszero\n        /* \"Campaign.sol\":2002:2057  require(!requestToApprove.requestApprovers[msg.sender]) */\n      tag_82\n      jumpi\n      0x00\n      dup1\n      revert\n    tag_82:\n        /* \"Campaign.sol\":2116:2120  true */\n      0x01\n        /* \"Campaign.sol\":2068:2084  requestToApprove */\n      dup2\n        /* \"Campaign.sol\":2068:2101  requestToApprove.requestApprovers */\n      0x04\n      add\n        /* \"Campaign.sol\":2068:2113  requestToApprove.requestApprovers[msg.sender] */\n      0x00\n        /* \"Campaign.sol\":2102:2112  msg.sender */\n      caller\n        /* \"Campaign.sol\":2068:2113  requestToApprove.requestApprovers[msg.sender] */\n      0xffffffffffffffffffffffffffffffffffffffff\n      and\n      0xffffffffffffffffffffffffffffffffffffffff\n      and\n      dup2\n      mstore\n      0x20\n      add\n      swap1\n      dup2\n      mstore\n      0x20\n      add\n      0x00\n      keccak256\n      0x00\n        /* \"Campaign.sol\":2068:2120  requestToApprove.requestApprovers[msg.sender] = true */\n      0x0100\n      exp\n      dup2\n      sload\n      dup2\n      0xff\n      mul\n      not\n      and\n      swap1\n      dup4\n      iszero\n      iszero\n      mul\n      or\n      swap1\n      sstore\n      pop\n        /* \"Campaign.sol\":2130:2146  requestToApprove */\n      dup1\n        /* \"Campaign.sol\":2130:2160  requestToApprove.approvalCount */\n      0x03\n      add\n      0x00\n        /* \"Campaign.sol\":2130:2162  requestToApprove.approvalCount++ */\n      dup2\n      sload\n      dup1\n      swap3\n      swap2\n      swap1\n      tag_83\n      swap1\n      tag_84\n      jump\t// in\n    tag_83:\n      swap2\n      swap1\n      pop\n      sstore\n      pop\n        /* \"Campaign.sol\":1804:2169  function approveSpendingRequest(uint256 requestIndex) public {... */\n      pop\n      pop\n      jump\t// out\n        /* \"Campaign.sol\":709:742  SpendingRequest[] public requests */\n    tag_35:\n      0x00\n      dup2\n      dup2\n      sload\n      dup2\n      lt\n      tag_85\n      jumpi\n      0x00\n      dup1\n      revert\n    tag_85:\n      swap1\n      0x00\n      mstore\n      keccak256(0x00, 0x20)\n      swap1\n      0x05\n      mul\n      add\n      0x00\n      swap2\n      pop\n      swap1\n      pop\n      dup1\n      0x00\n      add\n      dup1\n      sload\n      tag_87\n      swap1\n      tag_88\n      jump\t// in\n    tag_87:\n      dup1\n      0x1f\n      add\n      0x20\n      dup1\n      swap2\n      div\n      mul\n      0x20\n      add\n      mload(0x40)\n      swap1\n      dup2\n      add\n      0x40\n      mstore\n      dup1\n      swap3\n      swap2\n      swap1\n      dup2\n      dup2\n      mstore\n      0x20\n      add\n      dup3\n      dup1\n      sload\n      tag_89\n      swap1\n      tag_88\n      jump\t// in\n    tag_89:\n      dup1\n      iszero\n      tag_90\n      jumpi\n      dup1\n      0x1f\n      lt\n      tag_91\n      jumpi\n      0x0100\n      dup1\n      dup4\n      sload\n      div\n      mul\n      dup4\n      mstore\n      swap2\n      0x20\n      add\n      swap2\n      jump(tag_90)\n    tag_91:\n      dup3\n      add\n      swap2\n      swap1\n      0x00\n      mstore\n      keccak256(0x00, 0x20)\n      swap1\n    tag_92:\n      dup2\n      sload\n      dup2\n      mstore\n      swap1\n      0x01\n      add\n      swap1\n      0x20\n      add\n      dup1\n      dup4\n      gt\n      tag_92\n      jumpi\n      dup3\n      swap1\n      sub\n      0x1f\n      and\n      dup3\n      add\n      swap2\n    tag_90:\n      pop\n      pop\n      pop\n      pop\n      pop\n      swap1\n      dup1\n      0x01\n      add\n      sload\n      swap1\n      dup1\n      0x02\n      add\n      0x00\n      swap1\n      sload\n      swap1\n      0x0100\n      exp\n      swap1\n      div\n      0xffffffffffffffffffffffffffffffffffffffff\n      and\n      swap1\n      dup1\n      0x02\n      add\n      0x14\n      swap1\n      sload\n      swap1\n      0x0100\n      exp\n      swap1\n      div\n      0xff\n      and\n      swap1\n      dup1\n      0x03\n      add\n      sload\n      swap1\n      pop\n      dup6\n      jump\t// out\n        /* \"Campaign.sol\":1384:1798  function createSpendingRequest(... */\n    tag_42:\n        /* \"Campaign.sol\":983:998  campaignManager */\n      0x01\n      0x00\n      swap1\n      sload\n      swap1\n      0x0100\n      exp\n      swap1\n      div\n      0xffffffffffffffffffffffffffffffffffffffff\n      and\n        /* \"Campaign.sol\":969:998  msg.sender == campaignManager */\n      0xffffffffffffffffffffffffffffffffffffffff\n      and\n        /* \"Campaign.sol\":969:979  msg.sender */\n      caller\n        /* \"Campaign.sol\":969:998  msg.sender == campaignManager */\n      0xffffffffffffffffffffffffffffffffffffffff\n      and\n      eq\n        /* \"Campaign.sol\":961:999  require(msg.sender == campaignManager) */\n      tag_94\n      jumpi\n      0x00\n      dup1\n      revert\n    tag_94:\n        /* \"Campaign.sol\":1542:1576  SpendingRequest storage newRequest */\n      0x00\n        /* \"Campaign.sol\":1579:1587  requests */\n      dup1\n        /* \"Campaign.sol\":1579:1594  requests.push() */\n      0x01\n      dup2\n      0x01\n      dup2\n      sload\n      add\n      dup1\n      dup3\n      sstore\n      dup1\n      swap2\n      pop\n      pop\n      sub\n      swap1\n      0x00\n      mstore\n      keccak256(0x00, 0x20)\n      swap1\n      0x05\n      mul\n      add\n        /* \"Campaign.sol\":1542:1594  SpendingRequest storage newRequest = requests.push() */\n      swap1\n      pop\n        /* \"Campaign.sol\":1629:1640  description */\n      dup4\n        /* \"Campaign.sol\":1604:1614  newRequest */\n      dup2\n        /* \"Campaign.sol\":1604:1626  newRequest.description */\n      0x00\n      add\n        /* \"Campaign.sol\":1604:1640  newRequest.description = description */\n      swap1\n      dup1\n      mload\n      swap1\n      0x20\n      add\n      swap1\n      tag_97\n      swap3\n      swap2\n      swap1\n      tag_98\n      jump\t// in\n    tag_97:\n      pop\n        /* \"Campaign.sol\":1669:1674  value */\n      dup3\n        /* \"Campaign.sol\":1650:1660  newRequest */\n      dup2\n        /* \"Campaign.sol\":1650:1666  newRequest.value */\n      0x01\n      add\n        /* \"Campaign.sol\":1650:1674  newRequest.value = value */\n      dup2\n      swap1\n      sstore\n      pop\n        /* \"Campaign.sol\":1707:1716  recipient */\n      dup2\n        /* \"Campaign.sol\":1684:1694  newRequest */\n      dup2\n        /* \"Campaign.sol\":1684:1704  newRequest.recipient */\n      0x02\n      add\n      0x00\n        /* \"Campaign.sol\":1684:1716  newRequest.recipient = recipient */\n      0x0100\n      exp\n      dup2\n      sload\n      dup2\n      0xffffffffffffffffffffffffffffffffffffffff\n      mul\n      not\n      and\n      swap1\n      dup4\n      0xffffffffffffffffffffffffffffffffffffffff\n      and\n      mul\n      or\n      swap1\n      sstore\n      pop\n        /* \"Campaign.sol\":1748:1753  false */\n      0x00\n        /* \"Campaign.sol\":1726:1736  newRequest */\n      dup2\n        /* \"Campaign.sol\":1726:1745  newRequest.complete */\n      0x02\n      add\n      0x14\n        /* \"Campaign.sol\":1726:1753  newRequest.complete = false */\n      0x0100\n      exp\n      dup2\n      sload\n      dup2\n      0xff\n      mul\n      not\n      and\n      swap1\n      dup4\n      iszero\n      iszero\n      mul\n      or\n      swap1\n      sstore\n      pop\n        /* \"Campaign.sol\":1790:1791  0 */\n      0x00\n        /* \"Campaign.sol\":1763:1773  newRequest */\n      dup2\n        /* \"Campaign.sol\":1763:1787  newRequest.approvalCount */\n      0x03\n      add\n        /* \"Campaign.sol\":1763:1791  newRequest.approvalCount = 0 */\n      dup2\n      swap1\n      sstore\n      pop\n        /* \"Campaign.sol\":1009:1010  _ */\n      pop\n        /* \"Campaign.sol\":1384:1798  function createSpendingRequest(... */\n      pop\n      pop\n      pop\n      jump\t// out\n        /* \"Campaign.sol\":784:818  uint256 public minimumContribution */\n    tag_45:\n      sload(0x02)\n      dup2\n      jump\t// out\n        /* \"Campaign.sol\":2605:2998  function getCampaignSummary()... */\n    tag_49:\n        /* \"Campaign.sol\":2693:2700  uint256 */\n      0x00\n        /* \"Campaign.sol\":2714:2721  uint256 */\n      dup1\n        /* \"Campaign.sol\":2735:2742  uint256 */\n      0x00\n        /* \"Campaign.sol\":2756:2763  uint256 */\n      dup1\n        /* \"Campaign.sol\":2777:2784  address */\n      0x00\n        /* \"Campaign.sol\":2830:2849  minimumContribution */\n      sload(0x02)\n        /* \"Campaign.sol\":2863:2884  address(this).balance */\n      selfbalance\n        /* \"Campaign.sol\":2898:2906  requests */\n      0x00\n        /* \"Campaign.sol\":2898:2913  requests.length */\n      dup1\n      sload\n      swap1\n      pop\n        /* \"Campaign.sol\":2927:2952  campaignContributorsCount */\n      sload(0x04)\n        /* \"Campaign.sol\":2966:2981  campaignManager */\n      0x01\n      0x00\n      swap1\n      sload\n      swap1\n      0x0100\n      exp\n      swap1\n      div\n      0xffffffffffffffffffffffffffffffffffffffff\n      and\n        /* \"Campaign.sol\":2809:2991  return (... */\n      swap5\n      pop\n      swap5\n      pop\n      swap5\n      pop\n      swap5\n      pop\n      swap5\n      pop\n        /* \"Campaign.sol\":2605:2998  function getCampaignSummary()... */\n      swap1\n      swap2\n      swap3\n      swap4\n      swap5\n      jump\t// out\n        /* \"Campaign.sol\":1198:1378  function contribute() public payable {... */\n    tag_53:\n        /* \"Campaign.sol\":1265:1284  minimumContribution */\n      sload(0x02)\n        /* \"Campaign.sol\":1253:1262  msg.value */\n      callvalue\n        /* \"Campaign.sol\":1253:1284  msg.value > minimumContribution */\n      gt\n        /* \"Campaign.sol\":1245:1285  require(msg.value > minimumContribution) */\n      tag_101\n      jumpi\n      0x00\n      dup1\n      revert\n    tag_101:\n        /* \"Campaign.sol\":1330:1334  true */\n      0x01\n        /* \"Campaign.sol\":1295:1315  campaignContributors */\n      0x03\n        /* \"Campaign.sol\":1295:1327  campaignContributors[msg.sender] */\n      0x00\n        /* \"Campaign.sol\":1316:1326  msg.sender */\n      caller\n        /* \"Campaign.sol\":1295:1327  campaignContributors[msg.sender] */\n      0xffffffffffffffffffffffffffffffffffffffff\n      and\n      0xffffffffffffffffffffffffffffffffffffffff\n      and\n      dup2\n      mstore\n      0x20\n      add\n      swap1\n      dup2\n      mstore\n      0x20\n      add\n      0x00\n      keccak256\n      0x00\n        /* \"Campaign.sol\":1295:1334  campaignContributors[msg.sender] = true */\n      0x0100\n      exp\n      dup2\n      sload\n      dup2\n      0xff\n      mul\n      not\n      and\n      swap1\n      dup4\n      iszero\n      iszero\n      mul\n      or\n      swap1\n      sstore\n      pop\n        /* \"Campaign.sol\":1344:1369  campaignContributorsCount */\n      0x04\n      0x00\n        /* \"Campaign.sol\":1344:1371  campaignContributorsCount++ */\n      dup2\n      sload\n      dup1\n      swap3\n      swap2\n      swap1\n      tag_102\n      swap1\n      tag_84\n      jump\t// in\n    tag_102:\n      swap2\n      swap1\n      pop\n      sstore\n      pop\n        /* \"Campaign.sol\":1198:1378  function contribute() public payable {... */\n      jump\t// out\n        /* \"Campaign.sol\":824:876  mapping(address => bool) public campaignContributors */\n    tag_58:\n      mstore(0x20, 0x03)\n      dup1\n      0x00\n      mstore\n      keccak256(0x00, 0x40)\n      0x00\n      swap2\n      pop\n      sload\n      swap1\n      0x0100\n      exp\n      swap1\n      div\n      0xff\n      and\n      dup2\n      jump\t// out\n        /* \"Campaign.sol\":748:778  address public campaignManager */\n    tag_63:\n      0x01\n      0x00\n      swap1\n      sload\n      swap1\n      0x0100\n      exp\n      swap1\n      div\n      0xffffffffffffffffffffffffffffffffffffffff\n      and\n      dup2\n      jump\t// out\n    tag_98:\n      dup3\n      dup1\n      sload\n      tag_103\n      swap1\n      tag_88\n      jump\t// in\n    tag_103:\n      swap1\n      0x00\n      mstore\n      keccak256(0x00, 0x20)\n      swap1\n      0x1f\n      add\n      0x20\n      swap1\n      div\n      dup2\n      add\n      swap3\n      dup3\n      tag_105\n      jumpi\n      0x00\n      dup6\n      sstore\n      jump(tag_104)\n    tag_105:\n      dup3\n      0x1f\n      lt\n      tag_106\n      jumpi\n      dup1\n      mload\n      not(0xff)\n      and\n      dup4\n      dup1\n      add\n      or\n      dup6\n      sstore\n      jump(tag_104)\n    tag_106:\n      dup3\n      dup1\n      add\n      0x01\n      add\n      dup6\n      sstore\n      dup3\n      iszero\n      tag_104\n      jumpi\n      swap2\n      dup3\n      add\n    tag_107:\n      dup3\n      dup2\n      gt\n      iszero\n      tag_108\n      jumpi\n      dup3\n      mload\n      dup3\n      sstore\n      swap2\n      0x20\n      add\n      swap2\n      swap1\n      0x01\n      add\n      swap1\n      jump(tag_107)\n    tag_108:\n    tag_104:\n      pop\n      swap1\n      pop\n      tag_109\n      swap2\n      swap1\n      tag_110\n      jump\t// in\n    tag_109:\n      pop\n      swap1\n      jump\t// out\n    tag_110:\n    tag_111:\n      dup1\n      dup3\n      gt\n      iszero\n      tag_112\n      jumpi\n      0x00\n      dup2\n      0x00\n      swap1\n      sstore\n      pop\n      0x01\n      add\n      jump(tag_111)\n    tag_112:\n      pop\n      swap1\n      jump\t// out\n        /* \"#utility.yul\":7:351   */\n    tag_114:\n      0x00\n        /* \"#utility.yul\":110:175   */\n      tag_116\n        /* \"#utility.yul\":125:174   */\n      tag_117\n        /* \"#utility.yul\":167:173   */\n      dup5\n        /* \"#utility.yul\":125:174   */\n      tag_118\n      jump\t// in\n    tag_117:\n        /* \"#utility.yul\":110:175   */\n      tag_119\n      jump\t// in\n    tag_116:\n        /* \"#utility.yul\":101:175   */\n      swap1\n      pop\n        /* \"#utility.yul\":198:204   */\n      dup3\n        /* \"#utility.yul\":191:196   */\n      dup2\n        /* \"#utility.yul\":184:205   */\n      mstore\n        /* \"#utility.yul\":236:240   */\n      0x20\n        /* \"#utility.yul\":229:234   */\n      dup2\n        /* \"#utility.yul\":225:241   */\n      add\n        /* \"#utility.yul\":274:277   */\n      dup5\n        /* \"#utility.yul\":265:271   */\n      dup5\n        /* \"#utility.yul\":260:263   */\n      dup5\n        /* \"#utility.yul\":256:272   */\n      add\n        /* \"#utility.yul\":253:278   */\n      gt\n        /* \"#utility.yul\":250:252   */\n      iszero\n      tag_120\n      jumpi\n        /* \"#utility.yul\":291:292   */\n      0x00\n        /* \"#utility.yul\":288:289   */\n      dup1\n        /* \"#utility.yul\":281:293   */\n      revert\n        /* \"#utility.yul\":250:252   */\n    tag_120:\n        /* \"#utility.yul\":304:345   */\n      tag_121\n        /* \"#utility.yul\":338:344   */\n      dup5\n        /* \"#utility.yul\":333:336   */\n      dup3\n        /* \"#utility.yul\":328:331   */\n      dup6\n        /* \"#utility.yul\":304:345   */\n      tag_122\n      jump\t// in\n    tag_121:\n        /* \"#utility.yul\":91:351   */\n      pop\n      swap4\n      swap3\n      pop\n      pop\n      pop\n      jump\t// out\n        /* \"#utility.yul\":357:496   */\n    tag_123:\n      0x00\n        /* \"#utility.yul\":441:447   */\n      dup2\n        /* \"#utility.yul\":428:448   */\n      calldataload\n        /* \"#utility.yul\":419:448   */\n      swap1\n      pop\n        /* \"#utility.yul\":457:490   */\n      tag_125\n        /* \"#utility.yul\":484:489   */\n      dup2\n        /* \"#utility.yul\":457:490   */\n      tag_126\n      jump\t// in\n    tag_125:\n        /* \"#utility.yul\":409:496   */\n      swap3\n      swap2\n      pop\n      pop\n      jump\t// out\n        /* \"#utility.yul\":502:657   */\n    tag_127:\n      0x00\n        /* \"#utility.yul\":594:600   */\n      dup2\n        /* \"#utility.yul\":581:601   */\n      calldataload\n        /* \"#utility.yul\":572:601   */\n      swap1\n      pop\n        /* \"#utility.yul\":610:651   */\n      tag_129\n        /* \"#utility.yul\":645:650   */\n      dup2\n        /* \"#utility.yul\":610:651   */\n      tag_130\n      jump\t// in\n    tag_129:\n        /* \"#utility.yul\":562:657   */\n      swap3\n      swap2\n      pop\n      pop\n      jump\t// out\n        /* \"#utility.yul\":677:950   */\n    tag_131:\n      0x00\n        /* \"#utility.yul\":782:785   */\n      dup3\n        /* \"#utility.yul\":775:779   */\n      0x1f\n        /* \"#utility.yul\":767:773   */\n      dup4\n        /* \"#utility.yul\":763:780   */\n      add\n        /* \"#utility.yul\":759:786   */\n      slt\n        /* \"#utility.yul\":749:751   */\n      tag_133\n      jumpi\n        /* \"#utility.yul\":800:801   */\n      0x00\n        /* \"#utility.yul\":797:798   */\n      dup1\n        /* \"#utility.yul\":790:802   */\n      revert\n        /* \"#utility.yul\":749:751   */\n    tag_133:\n        /* \"#utility.yul\":840:846   */\n      dup2\n        /* \"#utility.yul\":827:847   */\n      calldataload\n        /* \"#utility.yul\":865:944   */\n      tag_134\n        /* \"#utility.yul\":940:943   */\n      dup5\n        /* \"#utility.yul\":932:938   */\n      dup3\n        /* \"#utility.yul\":925:929   */\n      0x20\n        /* \"#utility.yul\":917:923   */\n      dup7\n        /* \"#utility.yul\":913:930   */\n      add\n        /* \"#utility.yul\":865:944   */\n      tag_114\n      jump\t// in\n    tag_134:\n        /* \"#utility.yul\":856:944   */\n      swap2\n      pop\n        /* \"#utility.yul\":739:950   */\n      pop\n      swap3\n      swap2\n      pop\n      pop\n      jump\t// out\n        /* \"#utility.yul\":956:1095   */\n    tag_135:\n      0x00\n        /* \"#utility.yul\":1040:1046   */\n      dup2\n        /* \"#utility.yul\":1027:1047   */\n      calldataload\n        /* \"#utility.yul\":1018:1047   */\n      swap1\n      pop\n        /* \"#utility.yul\":1056:1089   */\n      tag_137\n        /* \"#utility.yul\":1083:1088   */\n      dup2\n        /* \"#utility.yul\":1056:1089   */\n      tag_138\n      jump\t// in\n    tag_137:\n        /* \"#utility.yul\":1008:1095   */\n      swap3\n      swap2\n      pop\n      pop\n      jump\t// out\n        /* \"#utility.yul\":1101:1363   */\n    tag_57:\n      0x00\n        /* \"#utility.yul\":1209:1211   */\n      0x20\n        /* \"#utility.yul\":1197:1206   */\n      dup3\n        /* \"#utility.yul\":1188:1195   */\n      dup5\n        /* \"#utility.yul\":1184:1207   */\n      sub\n        /* \"#utility.yul\":1180:1212   */\n      slt\n        /* \"#utility.yul\":1177:1179   */\n      iszero\n      tag_140\n      jumpi\n        /* \"#utility.yul\":1225:1226   */\n      0x00\n        /* \"#utility.yul\":1222:1223   */\n      dup1\n        /* \"#utility.yul\":1215:1227   */\n      revert\n        /* \"#utility.yul\":1177:1179   */\n    tag_140:\n        /* \"#utility.yul\":1268:1269   */\n      0x00\n        /* \"#utility.yul\":1293:1346   */\n      tag_141\n        /* \"#utility.yul\":1338:1345   */\n      dup5\n        /* \"#utility.yul\":1329:1335   */\n      dup3\n        /* \"#utility.yul\":1318:1327   */\n      dup6\n        /* \"#utility.yul\":1314:1336   */\n      add\n        /* \"#utility.yul\":1293:1346   */\n      tag_123\n      jump\t// in\n    tag_141:\n        /* \"#utility.yul\":1283:1346   */\n      swap2\n      pop\n        /* \"#utility.yul\":1239:1356   */\n      pop\n        /* \"#utility.yul\":1167:1363   */\n      swap3\n      swap2\n      pop\n      pop\n      jump\t// out\n        /* \"#utility.yul\":1369:2050   */\n    tag_41:\n      0x00\n      dup1\n      0x00\n        /* \"#utility.yul\":1529:1531   */\n      0x60\n        /* \"#utility.yul\":1517:1526   */\n      dup5\n        /* \"#utility.yul\":1508:1515   */\n      dup7\n        /* \"#utility.yul\":1504:1527   */\n      sub\n        /* \"#utility.yul\":1500:1532   */\n      slt\n        /* \"#utility.yul\":1497:1499   */\n      iszero\n      tag_143\n      jumpi\n        /* \"#utility.yul\":1545:1546   */\n      0x00\n        /* \"#utility.yul\":1542:1543   */\n      dup1\n        /* \"#utility.yul\":1535:1547   */\n      revert\n        /* \"#utility.yul\":1497:1499   */\n    tag_143:\n        /* \"#utility.yul\":1616:1617   */\n      0x00\n        /* \"#utility.yul\":1605:1614   */\n      dup5\n        /* \"#utility.yul\":1601:1618   */\n      add\n        /* \"#utility.yul\":1588:1619   */\n      calldataload\n        /* \"#utility.yul\":1646:1664   */\n      0xffffffffffffffff\n        /* \"#utility.yul\":1638:1644   */\n      dup2\n        /* \"#utility.yul\":1635:1665   */\n      gt\n        /* \"#utility.yul\":1632:1634   */\n      iszero\n      tag_144\n      jumpi\n        /* \"#utility.yul\":1678:1679   */\n      0x00\n        /* \"#utility.yul\":1675:1676   */\n      dup1\n        /* \"#utility.yul\":1668:1680   */\n      revert\n        /* \"#utility.yul\":1632:1634   */\n    tag_144:\n        /* \"#utility.yul\":1706:1769   */\n      tag_145\n        /* \"#utility.yul\":1761:1768   */\n      dup7\n        /* \"#utility.yul\":1752:1758   */\n      dup3\n        /* \"#utility.yul\":1741:1750   */\n      dup8\n        /* \"#utility.yul\":1737:1759   */\n      add\n        /* \"#utility.yul\":1706:1769   */\n      tag_131\n      jump\t// in\n    tag_145:\n        /* \"#utility.yul\":1696:1769   */\n      swap4\n      pop\n        /* \"#utility.yul\":1559:1779   */\n      pop\n        /* \"#utility.yul\":1818:1820   */\n      0x20\n        /* \"#utility.yul\":1844:1897   */\n      tag_146\n        /* \"#utility.yul\":1889:1896   */\n      dup7\n        /* \"#utility.yul\":1880:1886   */\n      dup3\n        /* \"#utility.yul\":1869:1878   */\n      dup8\n        /* \"#utility.yul\":1865:1887   */\n      add\n        /* \"#utility.yul\":1844:1897   */\n      tag_135\n      jump\t// in\n    tag_146:\n        /* \"#utility.yul\":1834:1897   */\n      swap3\n      pop\n        /* \"#utility.yul\":1789:1907   */\n      pop\n        /* \"#utility.yul\":1946:1948   */\n      0x40\n        /* \"#utility.yul\":1972:2033   */\n      tag_147\n        /* \"#utility.yul\":2025:2032   */\n      dup7\n        /* \"#utility.yul\":2016:2022   */\n      dup3\n        /* \"#utility.yul\":2005:2014   */\n      dup8\n        /* \"#utility.yul\":2001:2023   */\n      add\n        /* \"#utility.yul\":1972:2033   */\n      tag_127\n      jump\t// in\n    tag_147:\n        /* \"#utility.yul\":1962:2033   */\n      swap2\n      pop\n        /* \"#utility.yul\":1917:2043   */\n      pop\n        /* \"#utility.yul\":1487:2050   */\n      swap3\n      pop\n      swap3\n      pop\n      swap3\n      jump\t// out\n        /* \"#utility.yul\":2056:2318   */\n    tag_26:\n      0x00\n        /* \"#utility.yul\":2164:2166   */\n      0x20\n        /* \"#utility.yul\":2152:2161   */\n      dup3\n        /* \"#utility.yul\":2143:2150   */\n      dup5\n        /* \"#utility.yul\":2139:2162   */\n      sub\n        /* \"#utility.yul\":2135:2167   */\n      slt\n        /* \"#utility.yul\":2132:2134   */\n      iszero\n      tag_149\n      jumpi\n        /* \"#utility.yul\":2180:2181   */\n      0x00\n        /* \"#utility.yul\":2177:2178   */\n      dup1\n        /* \"#utility.yul\":2170:2182   */\n      revert\n        /* \"#utility.yul\":2132:2134   */\n    tag_149:\n        /* \"#utility.yul\":2223:2224   */\n      0x00\n        /* \"#utility.yul\":2248:2301   */\n      tag_150\n        /* \"#utility.yul\":2293:2300   */\n      dup5\n        /* \"#utility.yul\":2284:2290   */\n      dup3\n        /* \"#utility.yul\":2273:2282   */\n      dup6\n        /* \"#utility.yul\":2269:2291   */\n      add\n        /* \"#utility.yul\":2248:2301   */\n      tag_135\n      jump\t// in\n    tag_150:\n        /* \"#utility.yul\":2238:2301   */\n      swap2\n      pop\n        /* \"#utility.yul\":2194:2311   */\n      pop\n        /* \"#utility.yul\":2122:2318   */\n      swap3\n      swap2\n      pop\n      pop\n      jump\t// out\n        /* \"#utility.yul\":2324:2466   */\n    tag_151:\n        /* \"#utility.yul\":2427:2459   */\n      tag_153\n        /* \"#utility.yul\":2453:2458   */\n      dup2\n        /* \"#utility.yul\":2427:2459   */\n      tag_154\n      jump\t// in\n    tag_153:\n        /* \"#utility.yul\":2422:2425   */\n      dup3\n        /* \"#utility.yul\":2415:2460   */\n      mstore\n        /* \"#utility.yul\":2405:2466   */\n      pop\n      pop\n      jump\t// out\n        /* \"#utility.yul\":2472:2590   */\n    tag_155:\n        /* \"#utility.yul\":2559:2583   */\n      tag_157\n        /* \"#utility.yul\":2577:2582   */\n      dup2\n        /* \"#utility.yul\":2559:2583   */\n      tag_158\n      jump\t// in\n    tag_157:\n        /* \"#utility.yul\":2554:2557   */\n      dup3\n        /* \"#utility.yul\":2547:2584   */\n      mstore\n        /* \"#utility.yul\":2537:2590   */\n      pop\n      pop\n      jump\t// out\n        /* \"#utility.yul\":2596:2705   */\n    tag_159:\n        /* \"#utility.yul\":2677:2698   */\n      tag_161\n        /* \"#utility.yul\":2692:2697   */\n      dup2\n        /* \"#utility.yul\":2677:2698   */\n      tag_162\n      jump\t// in\n    tag_161:\n        /* \"#utility.yul\":2672:2675   */\n      dup3\n        /* \"#utility.yul\":2665:2699   */\n      mstore\n        /* \"#utility.yul\":2655:2705   */\n      pop\n      pop\n      jump\t// out\n        /* \"#utility.yul\":2711:3075   */\n    tag_163:\n      0x00\n        /* \"#utility.yul\":2827:2866   */\n      tag_165\n        /* \"#utility.yul\":2860:2865   */\n      dup3\n        /* \"#utility.yul\":2827:2866   */\n      tag_166\n      jump\t// in\n    tag_165:\n        /* \"#utility.yul\":2882:2953   */\n      tag_167\n        /* \"#utility.yul\":2946:2952   */\n      dup2\n        /* \"#utility.yul\":2941:2944   */\n      dup6\n        /* \"#utility.yul\":2882:2953   */\n      tag_168\n      jump\t// in\n    tag_167:\n        /* \"#utility.yul\":2875:2953   */\n      swap4\n      pop\n        /* \"#utility.yul\":2962:3014   */\n      tag_169\n        /* \"#utility.yul\":3007:3013   */\n      dup2\n        /* \"#utility.yul\":3002:3005   */\n      dup6\n        /* \"#utility.yul\":2995:2999   */\n      0x20\n        /* \"#utility.yul\":2988:2993   */\n      dup7\n        /* \"#utility.yul\":2984:3000   */\n      add\n        /* \"#utility.yul\":2962:3014   */\n      tag_170\n      jump\t// in\n    tag_169:\n        /* \"#utility.yul\":3039:3068   */\n      tag_171\n        /* \"#utility.yul\":3061:3067   */\n      dup2\n        /* \"#utility.yul\":3039:3068   */\n      tag_172\n      jump\t// in\n    tag_171:\n        /* \"#utility.yul\":3034:3037   */\n      dup5\n        /* \"#utility.yul\":3030:3069   */\n      add\n        /* \"#utility.yul\":3023:3069   */\n      swap2\n      pop\n        /* \"#utility.yul\":2803:3075   */\n      pop\n      swap3\n      swap2\n      pop\n      pop\n      jump\t// out\n        /* \"#utility.yul\":3081:3199   */\n    tag_173:\n        /* \"#utility.yul\":3168:3192   */\n      tag_175\n        /* \"#utility.yul\":3186:3191   */\n      dup2\n        /* \"#utility.yul\":3168:3192   */\n      tag_176\n      jump\t// in\n    tag_175:\n        /* \"#utility.yul\":3163:3166   */\n      dup3\n        /* \"#utility.yul\":3156:3193   */\n      mstore\n        /* \"#utility.yul\":3146:3199   */\n      pop\n      pop\n      jump\t// out\n        /* \"#utility.yul\":3205:3427   */\n    tag_65:\n      0x00\n        /* \"#utility.yul\":3336:3338   */\n      0x20\n        /* \"#utility.yul\":3325:3334   */\n      dup3\n        /* \"#utility.yul\":3321:3339   */\n      add\n        /* \"#utility.yul\":3313:3339   */\n      swap1\n      pop\n        /* \"#utility.yul\":3349:3420   */\n      tag_178\n        /* \"#utility.yul\":3417:3418   */\n      0x00\n        /* \"#utility.yul\":3406:3415   */\n      dup4\n        /* \"#utility.yul\":3402:3419   */\n      add\n        /* \"#utility.yul\":3393:3399   */\n      dup5\n        /* \"#utility.yul\":3349:3420   */\n      tag_155\n      jump\t// in\n    tag_178:\n        /* \"#utility.yul\":3303:3427   */\n      swap3\n      swap2\n      pop\n      pop\n      jump\t// out\n        /* \"#utility.yul\":3433:3643   */\n    tag_60:\n      0x00\n        /* \"#utility.yul\":3558:3560   */\n      0x20\n        /* \"#utility.yul\":3547:3556   */\n      dup3\n        /* \"#utility.yul\":3543:3561   */\n      add\n        /* \"#utility.yul\":3535:3561   */\n      swap1\n      pop\n        /* \"#utility.yul\":3571:3636   */\n      tag_180\n        /* \"#utility.yul\":3633:3634   */\n      0x00\n        /* \"#utility.yul\":3622:3631   */\n      dup4\n        /* \"#utility.yul\":3618:3635   */\n      add\n        /* \"#utility.yul\":3609:3615   */\n      dup5\n        /* \"#utility.yul\":3571:3636   */\n      tag_159\n      jump\t// in\n    tag_180:\n        /* \"#utility.yul\":3525:3643   */\n      swap3\n      swap2\n      pop\n      pop\n      jump\t// out\n        /* \"#utility.yul\":3649:4424   */\n    tag_37:\n      0x00\n        /* \"#utility.yul\":3922:3925   */\n      0xa0\n        /* \"#utility.yul\":3911:3920   */\n      dup3\n        /* \"#utility.yul\":3907:3926   */\n      add\n        /* \"#utility.yul\":3899:3926   */\n      swap1\n      pop\n        /* \"#utility.yul\":3972:3981   */\n      dup2\n        /* \"#utility.yul\":3966:3970   */\n      dup2\n        /* \"#utility.yul\":3962:3982   */\n      sub\n        /* \"#utility.yul\":3958:3959   */\n      0x00\n        /* \"#utility.yul\":3947:3956   */\n      dup4\n        /* \"#utility.yul\":3943:3960   */\n      add\n        /* \"#utility.yul\":3936:3983   */\n      mstore\n        /* \"#utility.yul\":4000:4078   */\n      tag_182\n        /* \"#utility.yul\":4073:4077   */\n      dup2\n        /* \"#utility.yul\":4064:4070   */\n      dup9\n        /* \"#utility.yul\":4000:4078   */\n      tag_163\n      jump\t// in\n    tag_182:\n        /* \"#utility.yul\":3992:4078   */\n      swap1\n      pop\n        /* \"#utility.yul\":4088:4160   */\n      tag_183\n        /* \"#utility.yul\":4156:4158   */\n      0x20\n        /* \"#utility.yul\":4145:4154   */\n      dup4\n        /* \"#utility.yul\":4141:4159   */\n      add\n        /* \"#utility.yul\":4132:4138   */\n      dup8\n        /* \"#utility.yul\":4088:4160   */\n      tag_173\n      jump\t// in\n    tag_183:\n        /* \"#utility.yul\":4170:4258   */\n      tag_184\n        /* \"#utility.yul\":4254:4256   */\n      0x40\n        /* \"#utility.yul\":4243:4252   */\n      dup4\n        /* \"#utility.yul\":4239:4257   */\n      add\n        /* \"#utility.yul\":4230:4236   */\n      dup7\n        /* \"#utility.yul\":4170:4258   */\n      tag_151\n      jump\t// in\n    tag_184:\n        /* \"#utility.yul\":4268:4334   */\n      tag_185\n        /* \"#utility.yul\":4330:4332   */\n      0x60\n        /* \"#utility.yul\":4319:4328   */\n      dup4\n        /* \"#utility.yul\":4315:4333   */\n      add\n        /* \"#utility.yul\":4306:4312   */\n      dup6\n        /* \"#utility.yul\":4268:4334   */\n      tag_159\n      jump\t// in\n    tag_185:\n        /* \"#utility.yul\":4344:4417   */\n      tag_186\n        /* \"#utility.yul\":4412:4415   */\n      0x80\n        /* \"#utility.yul\":4401:4410   */\n      dup4\n        /* \"#utility.yul\":4397:4416   */\n      add\n        /* \"#utility.yul\":4388:4394   */\n      dup5\n        /* \"#utility.yul\":4344:4417   */\n      tag_173\n      jump\t// in\n    tag_186:\n        /* \"#utility.yul\":3889:4424   */\n      swap7\n      swap6\n      pop\n      pop\n      pop\n      pop\n      pop\n      pop\n      jump\t// out\n        /* \"#utility.yul\":4430:4652   */\n    tag_18:\n      0x00\n        /* \"#utility.yul\":4561:4563   */\n      0x20\n        /* \"#utility.yul\":4550:4559   */\n      dup3\n        /* \"#utility.yul\":4546:4564   */\n      add\n        /* \"#utility.yul\":4538:4564   */\n      swap1\n      pop\n        /* \"#utility.yul\":4574:4645   */\n      tag_188\n        /* \"#utility.yul\":4642:4643   */\n      0x00\n        /* \"#utility.yul\":4631:4640   */\n      dup4\n        /* \"#utility.yul\":4627:4644   */\n      add\n        /* \"#utility.yul\":4618:4624   */\n      dup5\n        /* \"#utility.yul\":4574:4645   */\n      tag_173\n      jump\t// in\n    tag_188:\n        /* \"#utility.yul\":4528:4652   */\n      swap3\n      swap2\n      pop\n      pop\n      jump\t// out\n        /* \"#utility.yul\":4658:5322   */\n    tag_51:\n      0x00\n        /* \"#utility.yul\":4901:4904   */\n      0xa0\n        /* \"#utility.yul\":4890:4899   */\n      dup3\n        /* \"#utility.yul\":4886:4905   */\n      add\n        /* \"#utility.yul\":4878:4905   */\n      swap1\n      pop\n        /* \"#utility.yul\":4915:4986   */\n      tag_190\n        /* \"#utility.yul\":4983:4984   */\n      0x00\n        /* \"#utility.yul\":4972:4981   */\n      dup4\n        /* \"#utility.yul\":4968:4985   */\n      add\n        /* \"#utility.yul\":4959:4965   */\n      dup9\n        /* \"#utility.yul\":4915:4986   */\n      tag_173\n      jump\t// in\n    tag_190:\n        /* \"#utility.yul\":4996:5068   */\n      tag_191\n        /* \"#utility.yul\":5064:5066   */\n      0x20\n        /* \"#utility.yul\":5053:5062   */\n      dup4\n        /* \"#utility.yul\":5049:5067   */\n      add\n        /* \"#utility.yul\":5040:5046   */\n      dup8\n        /* \"#utility.yul\":4996:5068   */\n      tag_173\n      jump\t// in\n    tag_191:\n        /* \"#utility.yul\":5078:5150   */\n      tag_192\n        /* \"#utility.yul\":5146:5148   */\n      0x40\n        /* \"#utility.yul\":5135:5144   */\n      dup4\n        /* \"#utility.yul\":5131:5149   */\n      add\n        /* \"#utility.yul\":5122:5128   */\n      dup7\n        /* \"#utility.yul\":5078:5150   */\n      tag_173\n      jump\t// in\n    tag_192:\n        /* \"#utility.yul\":5160:5232   */\n      tag_193\n        /* \"#utility.yul\":5228:5230   */\n      0x60\n        /* \"#utility.yul\":5217:5226   */\n      dup4\n        /* \"#utility.yul\":5213:5231   */\n      add\n        /* \"#utility.yul\":5204:5210   */\n      dup6\n        /* \"#utility.yul\":5160:5232   */\n      tag_173\n      jump\t// in\n    tag_193:\n        /* \"#utility.yul\":5242:5315   */\n      tag_194\n        /* \"#utility.yul\":5310:5313   */\n      0x80\n        /* \"#utility.yul\":5299:5308   */\n      dup4\n        /* \"#utility.yul\":5295:5314   */\n      add\n        /* \"#utility.yul\":5286:5292   */\n      dup5\n        /* \"#utility.yul\":5242:5315   */\n      tag_155\n      jump\t// in\n    tag_194:\n        /* \"#utility.yul\":4868:5322   */\n      swap7\n      swap6\n      pop\n      pop\n      pop\n      pop\n      pop\n      pop\n      jump\t// out\n        /* \"#utility.yul\":5328:5611   */\n    tag_119:\n      0x00\n        /* \"#utility.yul\":5394:5396   */\n      0x40\n        /* \"#utility.yul\":5388:5397   */\n      mload\n        /* \"#utility.yul\":5378:5397   */\n      swap1\n      pop\n        /* \"#utility.yul\":5436:5440   */\n      dup2\n        /* \"#utility.yul\":5428:5434   */\n      dup2\n        /* \"#utility.yul\":5424:5441   */\n      add\n        /* \"#utility.yul\":5543:5549   */\n      dup2\n        /* \"#utility.yul\":5531:5541   */\n      dup2\n        /* \"#utility.yul\":5528:5550   */\n      lt\n        /* \"#utility.yul\":5507:5525   */\n      0xffffffffffffffff\n        /* \"#utility.yul\":5495:5505   */\n      dup3\n        /* \"#utility.yul\":5492:5526   */\n      gt\n        /* \"#utility.yul\":5489:5551   */\n      or\n        /* \"#utility.yul\":5486:5488   */\n      iszero\n      tag_196\n      jumpi\n        /* \"#utility.yul\":5554:5572   */\n      tag_197\n      tag_198\n      jump\t// in\n    tag_197:\n        /* \"#utility.yul\":5486:5488   */\n    tag_196:\n        /* \"#utility.yul\":5594:5604   */\n      dup1\n        /* \"#utility.yul\":5590:5592   */\n      0x40\n        /* \"#utility.yul\":5583:5605   */\n      mstore\n        /* \"#utility.yul\":5368:5611   */\n      pop\n      swap2\n      swap1\n      pop\n      jump\t// out\n        /* \"#utility.yul\":5617:5949   */\n    tag_118:\n      0x00\n        /* \"#utility.yul\":5769:5787   */\n      0xffffffffffffffff\n        /* \"#utility.yul\":5761:5767   */\n      dup3\n        /* \"#utility.yul\":5758:5788   */\n      gt\n        /* \"#utility.yul\":5755:5757   */\n      iszero\n      tag_200\n      jumpi\n        /* \"#utility.yul\":5791:5809   */\n      tag_201\n      tag_198\n      jump\t// in\n    tag_201:\n        /* \"#utility.yul\":5755:5757   */\n    tag_200:\n        /* \"#utility.yul\":5876:5880   */\n      0x1f\n        /* \"#utility.yul\":5872:5881   */\n      not\n        /* \"#utility.yul\":5865:5869   */\n      0x1f\n        /* \"#utility.yul\":5857:5863   */\n      dup4\n        /* \"#utility.yul\":5853:5870   */\n      add\n        /* \"#utility.yul\":5849:5882   */\n      and\n        /* \"#utility.yul\":5841:5882   */\n      swap1\n      pop\n        /* \"#utility.yul\":5937:5941   */\n      0x20\n        /* \"#utility.yul\":5931:5935   */\n      dup2\n        /* \"#utility.yul\":5927:5942   */\n      add\n        /* \"#utility.yul\":5919:5942   */\n      swap1\n      pop\n        /* \"#utility.yul\":5684:5949   */\n      swap2\n      swap1\n      pop\n      jump\t// out\n        /* \"#utility.yul\":5955:6054   */\n    tag_166:\n      0x00\n        /* \"#utility.yul\":6041:6046   */\n      dup2\n        /* \"#utility.yul\":6035:6047   */\n      mload\n        /* \"#utility.yul\":6025:6047   */\n      swap1\n      pop\n        /* \"#utility.yul\":6014:6054   */\n      swap2\n      swap1\n      pop\n      jump\t// out\n        /* \"#utility.yul\":6060:6229   */\n    tag_168:\n      0x00\n        /* \"#utility.yul\":6178:6184   */\n      dup3\n        /* \"#utility.yul\":6173:6176   */\n      dup3\n        /* \"#utility.yul\":6166:6185   */\n      mstore\n        /* \"#utility.yul\":6218:6222   */\n      0x20\n        /* \"#utility.yul\":6213:6216   */\n      dup3\n        /* \"#utility.yul\":6209:6223   */\n      add\n        /* \"#utility.yul\":6194:6223   */\n      swap1\n      pop\n        /* \"#utility.yul\":6156:6229   */\n      swap3\n      swap2\n      pop\n      pop\n      jump\t// out\n        /* \"#utility.yul\":6235:6420   */\n    tag_73:\n      0x00\n        /* \"#utility.yul\":6292:6312   */\n      tag_205\n        /* \"#utility.yul\":6310:6311   */\n      dup3\n        /* \"#utility.yul\":6292:6312   */\n      tag_176\n      jump\t// in\n    tag_205:\n        /* \"#utility.yul\":6287:6312   */\n      swap2\n      pop\n        /* \"#utility.yul\":6326:6346   */\n      tag_206\n        /* \"#utility.yul\":6344:6345   */\n      dup4\n        /* \"#utility.yul\":6326:6346   */\n      tag_176\n      jump\t// in\n    tag_206:\n        /* \"#utility.yul\":6321:6346   */\n      swap3\n      pop\n        /* \"#utility.yul\":6365:6366   */\n      dup3\n        /* \"#utility.yul\":6355:6357   */\n      tag_207\n      jumpi\n        /* \"#utility.yul\":6370:6388   */\n      tag_208\n      tag_209\n      jump\t// in\n    tag_208:\n        /* \"#utility.yul\":6355:6357   */\n    tag_207:\n        /* \"#utility.yul\":6412:6413   */\n      dup3\n        /* \"#utility.yul\":6409:6410   */\n      dup3\n        /* \"#utility.yul\":6405:6414   */\n      div\n        /* \"#utility.yul\":6400:6414   */\n      swap1\n      pop\n        /* \"#utility.yul\":6277:6420   */\n      swap3\n      swap2\n      pop\n      pop\n      jump\t// out\n        /* \"#utility.yul\":6426:6522   */\n    tag_158:\n      0x00\n        /* \"#utility.yul\":6492:6516   */\n      tag_211\n        /* \"#utility.yul\":6510:6515   */\n      dup3\n        /* \"#utility.yul\":6492:6516   */\n      tag_212\n      jump\t// in\n    tag_211:\n        /* \"#utility.yul\":6481:6516   */\n      swap1\n      pop\n        /* \"#utility.yul\":6471:6522   */\n      swap2\n      swap1\n      pop\n      jump\t// out\n        /* \"#utility.yul\":6528:6632   */\n    tag_154:\n      0x00\n        /* \"#utility.yul\":6602:6626   */\n      tag_214\n        /* \"#utility.yul\":6620:6625   */\n      dup3\n        /* \"#utility.yul\":6602:6626   */\n      tag_212\n      jump\t// in\n    tag_214:\n        /* \"#utility.yul\":6591:6626   */\n      swap1\n      pop\n        /* \"#utility.yul\":6581:6632   */\n      swap2\n      swap1\n      pop\n      jump\t// out\n        /* \"#utility.yul\":6638:6728   */\n    tag_162:\n      0x00\n        /* \"#utility.yul\":6715:6720   */\n      dup2\n        /* \"#utility.yul\":6708:6721   */\n      iszero\n        /* \"#utility.yul\":6701:6722   */\n      iszero\n        /* \"#utility.yul\":6690:6722   */\n      swap1\n      pop\n        /* \"#utility.yul\":6680:6728   */\n      swap2\n      swap1\n      pop\n      jump\t// out\n        /* \"#utility.yul\":6734:6860   */\n    tag_212:\n      0x00\n        /* \"#utility.yul\":6811:6853   */\n      0xffffffffffffffffffffffffffffffffffffffff\n        /* \"#utility.yul\":6804:6809   */\n      dup3\n        /* \"#utility.yul\":6800:6854   */\n      and\n        /* \"#utility.yul\":6789:6854   */\n      swap1\n      pop\n        /* \"#utility.yul\":6779:6860   */\n      swap2\n      swap1\n      pop\n      jump\t// out\n        /* \"#utility.yul\":6866:6943   */\n    tag_176:\n      0x00\n        /* \"#utility.yul\":6932:6937   */\n      dup2\n        /* \"#utility.yul\":6921:6937   */\n      swap1\n      pop\n        /* \"#utility.yul\":6911:6943   */\n      swap2\n      swap1\n      pop\n      jump\t// out\n        /* \"#utility.yul\":6949:7103   */\n    tag_122:\n        /* \"#utility.yul\":7033:7039   */\n      dup3\n        /* \"#utility.yul\":7028:7031   */\n      dup2\n        /* \"#utility.yul\":7023:7026   */\n      dup4\n        /* \"#utility.yul\":7010:7040   */\n      calldatacopy\n        /* \"#utility.yul\":7095:7096   */\n      0x00\n        /* \"#utility.yul\":7086:7092   */\n      dup4\n        /* \"#utility.yul\":7081:7084   */\n      dup4\n        /* \"#utility.yul\":7077:7093   */\n      add\n        /* \"#utility.yul\":7070:7097   */\n      mstore\n        /* \"#utility.yul\":7000:7103   */\n      pop\n      pop\n      pop\n      jump\t// out\n        /* \"#utility.yul\":7109:7416   */\n    tag_170:\n        /* \"#utility.yul\":7177:7178   */\n      0x00\n        /* \"#utility.yul\":7187:7300   */\n    tag_220:\n        /* \"#utility.yul\":7201:7207   */\n      dup4\n        /* \"#utility.yul\":7198:7199   */\n      dup2\n        /* \"#utility.yul\":7195:7208   */\n      lt\n        /* \"#utility.yul\":7187:7300   */\n      iszero\n      tag_222\n      jumpi\n        /* \"#utility.yul\":7286:7287   */\n      dup1\n        /* \"#utility.yul\":7281:7284   */\n      dup3\n        /* \"#utility.yul\":7277:7288   */\n      add\n        /* \"#utility.yul\":7271:7289   */\n      mload\n        /* \"#utility.yul\":7267:7268   */\n      dup2\n        /* \"#utility.yul\":7262:7265   */\n      dup5\n        /* \"#utility.yul\":7258:7269   */\n      add\n        /* \"#utility.yul\":7251:7290   */\n      mstore\n        /* \"#utility.yul\":7223:7225   */\n      0x20\n        /* \"#utility.yul\":7220:7221   */\n      dup2\n        /* \"#utility.yul\":7216:7226   */\n      add\n        /* \"#utility.yul\":7211:7226   */\n      swap1\n      pop\n        /* \"#utility.yul\":7187:7300   */\n      jump(tag_220)\n    tag_222:\n        /* \"#utility.yul\":7318:7324   */\n      dup4\n        /* \"#utility.yul\":7315:7316   */\n      dup2\n        /* \"#utility.yul\":7312:7325   */\n      gt\n        /* \"#utility.yul\":7309:7311   */\n      iszero\n      tag_223\n      jumpi\n        /* \"#utility.yul\":7398:7399   */\n      0x00\n        /* \"#utility.yul\":7389:7395   */\n      dup5\n        /* \"#utility.yul\":7384:7387   */\n      dup5\n        /* \"#utility.yul\":7380:7396   */\n      add\n        /* \"#utility.yul\":7373:7400   */\n      mstore\n        /* \"#utility.yul\":7309:7311   */\n    tag_223:\n        /* \"#utility.yul\":7158:7416   */\n      pop\n      pop\n      pop\n      pop\n      jump\t// out\n        /* \"#utility.yul\":7422:7742   */\n    tag_88:\n      0x00\n        /* \"#utility.yul\":7503:7504   */\n      0x02\n        /* \"#utility.yul\":7497:7501   */\n      dup3\n        /* \"#utility.yul\":7493:7505   */\n      div\n        /* \"#utility.yul\":7483:7505   */\n      swap1\n      pop\n        /* \"#utility.yul\":7550:7551   */\n      0x01\n        /* \"#utility.yul\":7544:7548   */\n      dup3\n        /* \"#utility.yul\":7540:7552   */\n      and\n        /* \"#utility.yul\":7571:7589   */\n      dup1\n        /* \"#utility.yul\":7561:7563   */\n      tag_225\n      jumpi\n        /* \"#utility.yul\":7627:7631   */\n      0x7f\n        /* \"#utility.yul\":7619:7625   */\n      dup3\n        /* \"#utility.yul\":7615:7632   */\n      and\n        /* \"#utility.yul\":7605:7632   */\n      swap2\n      pop\n        /* \"#utility.yul\":7561:7563   */\n    tag_225:\n        /* \"#utility.yul\":7689:7691   */\n      0x20\n        /* \"#utility.yul\":7681:7687   */\n      dup3\n        /* \"#utility.yul\":7678:7692   */\n      lt\n        /* \"#utility.yul\":7658:7676   */\n      dup2\n        /* \"#utility.yul\":7655:7693   */\n      eq\n        /* \"#utility.yul\":7652:7654   */\n      iszero\n      tag_226\n      jumpi\n        /* \"#utility.yul\":7708:7726   */\n      tag_227\n      tag_228\n      jump\t// in\n    tag_227:\n        /* \"#utility.yul\":7652:7654   */\n    tag_226:\n        /* \"#utility.yul\":7473:7742   */\n      pop\n      swap2\n      swap1\n      pop\n      jump\t// out\n        /* \"#utility.yul\":7748:7981   */\n    tag_84:\n      0x00\n        /* \"#utility.yul\":7810:7834   */\n      tag_230\n        /* \"#utility.yul\":7828:7833   */\n      dup3\n        /* \"#utility.yul\":7810:7834   */\n      tag_176\n      jump\t// in\n    tag_230:\n        /* \"#utility.yul\":7801:7834   */\n      swap2\n      pop\n        /* \"#utility.yul\":7856:7922   */\n      0xffffffffffffffffffffffffffffffffffffffffffffffffffffffffffffffff\n        /* \"#utility.yul\":7849:7854   */\n      dup3\n        /* \"#utility.yul\":7846:7923   */\n      eq\n        /* \"#utility.yul\":7843:7845   */\n      iszero\n      tag_231\n      jumpi\n        /* \"#utility.yul\":7926:7944   */\n      tag_232\n      tag_233\n      jump\t// in\n    tag_232:\n        /* \"#utility.yul\":7843:7845   */\n    tag_231:\n        /* \"#utility.yul\":7973:7974   */\n      0x01\n        /* \"#utility.yul\":7966:7971   */\n      dup3\n        /* \"#utility.yul\":7962:7975   */\n      add\n        /* \"#utility.yul\":7955:7975   */\n      swap1\n      pop\n        /* \"#utility.yul\":7791:7981   */\n      swap2\n      swap1\n      pop\n      jump\t// out\n        /* \"#utility.yul\":7987:8167   */\n    tag_233:\n        /* \"#utility.yul\":8035:8112   */\n      0x4e487b7100000000000000000000000000000000000000000000000000000000\n        /* \"#utility.yul\":8032:8033   */\n      0x00\n        /* \"#utility.yul\":8025:8113   */\n      mstore\n        /* \"#utility.yul\":8132:8136   */\n      0x11\n        /* \"#utility.yul\":8129:8130   */\n      0x04\n        /* \"#utility.yul\":8122:8137   */\n      mstore\n        /* \"#utility.yul\":8156:8160   */\n      0x24\n        /* \"#utility.yul\":8153:8154   */\n      0x00\n        /* \"#utility.yul\":8146:8161   */\n      revert\n        /* \"#utility.yul\":8173:8353   */\n    tag_209:\n        /* \"#utility.yul\":8221:8298   */\n      0x4e487b7100000000000000000000000000000000000000000000000000000000\n        /* \"#utility.yul\":8218:8219   */\n      0x00\n        /* \"#utility.yul\":8211:8299   */\n      mstore\n        /* \"#utility.yul\":8318:8322   */\n      0x12\n        /* \"#utility.yul\":8315:8316   */\n      0x04\n        /* \"#utility.yul\":8308:8323   */\n      mstore\n        /* \"#utility.yul\":8342:8346   */\n      0x24\n        /* \"#utility.yul\":8339:8340   */\n      0x00\n        /* \"#utility.yul\":8332:8347   */\n      revert\n        /* \"#utility.yul\":8359:8539   */\n    tag_228:\n        /* \"#utility.yul\":8407:8484   */\n      0x4e487b7100000000000000000000000000000000000000000000000000000000\n        /* \"#utility.yul\":8404:8405   */\n      0x00\n        /* \"#utility.yul\":8397:8485   */\n      mstore\n        /* \"#utility.yul\":8504:8508   */\n      0x22\n        /* \"#utility.yul\":8501:8502   */\n      0x04\n        /* \"#utility.yul\":8494:8509   */\n      mstore\n        /* \"#utility.yul\":8528:8532   */\n      0x24\n        /* \"#utility.yul\":8525:8526   */\n      0x00\n        /* \"#utility.yul\":8518:8533   */\n      revert\n        /* \"#utility.yul\":8545:8725   */\n    tag_198:\n        /* \"#utility.yul\":8593:8670   */\n      0x4e487b7100000000000000000000000000000000000000000000000000000000\n        /* \"#utility.yul\":8590:8591   */\n      0x00\n        /* \"#utility.yul\":8583:8671   */\n      mstore\n        /* \"#utility.yul\":8690:8694   */\n      0x41\n        /* \"#utility.yul\":8687:8688   */\n      0x04\n        /* \"#utility.yul\":8680:8695   */\n      mstore\n        /* \"#utility.yul\":8714:8718   */\n      0x24\n        /* \"#utility.yul\":8711:8712   */\n      0x00\n        /* \"#utility.yul\":8704:8719   */\n      revert\n        /* \"#utility.yul\":8731:8833   */\n    tag_172:\n      0x00\n        /* \"#utility.yul\":8823:8825   */\n      0x1f\n        /* \"#utility.yul\":8819:8826   */\n      not\n        /* \"#utility.yul\":8814:8816   */\n      0x1f\n        /* \"#utility.yul\":8807:8812   */\n      dup4\n        /* \"#utility.yul\":8803:8817   */\n      add\n        /* \"#utility.yul\":8799:8827   */\n      and\n        /* \"#utility.yul\":8789:8827   */\n      swap1\n      pop\n        /* \"#utility.yul\":8779:8833   */\n      swap2\n      swap1\n      pop\n      jump\t// out\n        /* \"#utility.yul\":8839:8961   */\n    tag_126:\n        /* \"#utility.yul\":8912:8936   */\n      tag_240\n        /* \"#utility.yul\":8930:8935   */\n      dup2\n        /* \"#utility.yul\":8912:8936   */\n      tag_158\n      jump\t// in\n    tag_240:\n        /* \"#utility.yul\":8905:8910   */\n      dup2\n        /* \"#utility.yul\":8902:8937   */\n      eq\n        /* \"#utility.yul\":8892:8894   */\n      tag_241\n      jumpi\n        /* \"#utility.yul\":8951:8952   */\n      0x00\n        /* \"#utility.yul\":8948:8949   */\n      dup1\n        /* \"#utility.yul\":8941:8953   */\n      revert\n        /* \"#utility.yul\":8892:8894   */\n    tag_241:\n        /* \"#utility.yul\":8882:8961   */\n      pop\n      jump\t// out\n        /* \"#utility.yul\":8967:9105   */\n    tag_130:\n        /* \"#utility.yul\":9048:9080   */\n      tag_243\n        /* \"#utility.yul\":9074:9079   */\n      dup2\n        /* \"#utility.yul\":9048:9080   */\n      tag_154\n      jump\t// in\n    tag_243:\n        /* \"#utility.yul\":9041:9046   */\n      dup2\n        /* \"#utility.yul\":9038:9081   */\n      eq\n        /* \"#utility.yul\":9028:9030   */\n      tag_244\n      jumpi\n        /* \"#utility.yul\":9095:9096   */\n      0x00\n        /* \"#utility.yul\":9092:9093   */\n      dup1\n        /* \"#utility.yul\":9085:9097   */\n      revert\n        /* \"#utility.yul\":9028:9030   */\n    tag_244:\n        /* \"#utility.yul\":9018:9105   */\n      pop\n      jump\t// out\n        /* \"#utility.yul\":9111:9233   */\n    tag_138:\n        /* \"#utility.yul\":9184:9208   */\n      tag_246\n        /* \"#utility.yul\":9202:9207   */\n      dup2\n        /* \"#utility.yul\":9184:9208   */\n      tag_176\n      jump\t// in\n    tag_246:\n        /* \"#utility.yul\":9177:9182   */\n      dup2\n        /* \"#utility.yul\":9174:9209   */\n      eq\n        /* \"#utility.yul\":9164:9166   */\n      tag_247\n      jumpi\n        /* \"#utility.yul\":9223:9224   */\n      0x00\n        /* \"#utility.yul\":9220:9221   */\n      dup1\n        /* \"#utility.yul\":9213:9225   */\n      revert\n        /* \"#utility.yul\":9164:9166   */\n    tag_247:\n        /* \"#utility.yul\":9154:9233   */\n      pop\n      jump\t// out\n\n    auxdata: 0xa2646970667358221220bc8302e7b2c02cc0d7521c4c51a22832f19b9667b348f3c29b69332226373d7d64736f6c63430008000033\n}\n","bytecode":{"linkReferences":{},"object":"60806040523480156200001157600080fd5b506040516200108c3803806200108c8339818101604052810190620000379190620000b5565b80600160006101000a81548173ffffffffffffffffffffffffffffffffffffffff021916908373ffffffffffffffffffffffffffffffffffffffff16021790555081600281905550505062000168565b600081519050620000988162000134565b92915050565b600081519050620000af816200014e565b92915050565b60008060408385031215620000c957600080fd5b6000620000d9858286016200009e565b9250506020620000ec8582860162000087565b9150509250929050565b600062000103826200010a565b9050919050565b600073ffffffffffffffffffffffffffffffffffffffff82169050919050565b6000819050919050565b6200013f81620000f6565b81146200014b57600080fd5b50565b62000159816200012a565b81146200016557600080fd5b50565b610f1480620001786000396000f3fe60806040526004361061009c5760003560e01c80638810c6d9116100645780638810c6d91461018a578063937e09b1146101b3578063a00c96d7146101de578063d7bb99ba1461020d578063eb7c991914610217578063fb5e76e6146102545761009c565b80632a76083b146100a15780633410452a146100cc5780635f875bcd146100f75780636cf878621461012057806381d12c5814610149575b600080fd5b3480156100ad57600080fd5b506100b661027f565b6040516100c39190610b99565b60405180910390f35b3480156100d857600080fd5b506100e1610285565b6040516100ee9190610b99565b60405180910390f35b34801561010357600080fd5b5061011e60048036038101906101199190610a6b565b610291565b005b34801561012c57600080fd5b5061014760048036038101906101429190610a6b565b610400565b005b34801561015557600080fd5b50610170600480360381019061016b9190610a6b565b610572565b604051610181959493929190610b3f565b60405180910390f35b34801561019657600080fd5b506101b160048036038101906101ac9190610a04565b61066d565b005b3480156101bf57600080fd5b506101c861077c565b6040516101d59190610b99565b60405180910390f35b3480156101ea57600080fd5b506101f3610782565b604051610204959493929190610bb4565b60405180910390f35b6102156107cb565b005b34801561022357600080fd5b5061023e600480360381019061023991906109db565b61084b565b60405161024b9190610b24565b60405180910390f35b34801561026057600080fd5b5061026961086b565b6040516102769190610b09565b60405180910390f35b60045481565b60008080549050905090565b600160009054906101000a900473ffffffffffffffffffffffffffffffffffffffff1673ffffffffffffffffffffffffffffffffffffffff163373ffffffffffffffffffffffffffffffffffffffff16146102eb57600080fd5b6000808281548110610326577f4e487b7100000000000000000000000000000000000000000000000000000000600052603260045260246000fd5b9060005260206000209060050201905060026004546103459190610c84565b81600301541161035457600080fd5b8060020160149054906101000a900460ff161561037057600080fd5b8060020160009054906101000a900473ffffffffffffffffffffffffffffffffffffffff1673ffffffffffffffffffffffffffffffffffffffff166108fc82600101549081150290604051600060405180830381858888f193505050501580156103de573d6000803e3d6000fd5b5060018160020160146101000a81548160ff0219169083151502179055505050565b600080828154811061043b577f4e487b7100000000000000000000000000000000000000000000000000000000600052603260045260246000fd5b90600052602060002090600502019050600360003373ffffffffffffffffffffffffffffffffffffffff1673ffffffffffffffffffffffffffffffffffffffff16815260200190815260200160002060009054906101000a900460ff166104a157600080fd5b8060040160003373ffffffffffffffffffffffffffffffffffffffff1673ffffffffffffffffffffffffffffffffffffffff16815260200190815260200160002060009054906101000a900460ff16156104fa57600080fd5b60018160040160003373ffffffffffffffffffffffffffffffffffffffff1673ffffffffffffffffffffffffffffffffffffffff16815260200190815260200160002060006101000a81548160ff02191690831515021790555080600301600081548092919061056990610d83565b91905055505050565b6000818154811061058257600080fd5b90600052602060002090600502016000915090508060000180546105a590610d51565b80601f01602080910402602001604051908101604052809291908181526020018280546105d190610d51565b801561061e5780601f106105f35761010080835404028352916020019161061e565b820191906000526020600020905b81548152906001019060200180831161060157829003601f168201915b5050505050908060010154908060020160009054906101000a900473ffffffffffffffffffffffffffffffffffffffff16908060020160149054906101000a900460ff16908060030154905085565b600160009054906101000a900473ffffffffffffffffffffffffffffffffffffffff1673ffffffffffffffffffffffffffffffffffffffff163373ffffffffffffffffffffffffffffffffffffffff16146106c757600080fd5b600080600181600181540180825580915050039060005260206000209060050201905083816000019080519060200190610702929190610891565b50828160010181905550818160020160006101000a81548173ffffffffffffffffffffffffffffffffffffffff021916908373ffffffffffffffffffffffffffffffffffffffff16021790555060008160020160146101000a81548160ff0219169083151502179055506000816003018190555050505050565b60025481565b600080600080600060025447600080549050600454600160009054906101000a900473ffffffffffffffffffffffffffffffffffffffff16945094509450945094509091929394565b60025434116107d957600080fd5b6001600360003373ffffffffffffffffffffffffffffffffffffffff1673ffffffffffffffffffffffffffffffffffffffff16815260200190815260200160002060006101000a81548160ff0219169083151502179055506004600081548092919061084490610d83565b9190505550565b60036020528060005260406000206000915054906101000a900460ff1681565b600160009054906101000a900473ffffffffffffffffffffffffffffffffffffffff1681565b82805461089d90610d51565b90600052602060002090601f0160209004810192826108bf5760008555610906565b82601f106108d857805160ff1916838001178555610906565b82800160010185558215610906579182015b828111156109055782518255916020019190600101906108ea565b5b5090506109139190610917565b5090565b5b80821115610930576000816000905550600101610918565b5090565b600061094761094284610c38565b610c07565b90508281526020810184848401111561095f57600080fd5b61096a848285610d0f565b509392505050565b60008135905061098181610e99565b92915050565b60008135905061099681610eb0565b92915050565b600082601f8301126109ad57600080fd5b81356109bd848260208601610934565b91505092915050565b6000813590506109d581610ec7565b92915050565b6000602082840312156109ed57600080fd5b60006109fb84828501610972565b91505092915050565b600080600060608486031215610a1957600080fd5b600084013567ffffffffffffffff811115610a3357600080fd5b610a3f8682870161099c565b9350506020610a50868287016109c6565b9250506040610a6186828701610987565b9150509250925092565b600060208284031215610a7d57600080fd5b6000610a8b848285016109c6565b91505092915050565b610a9d81610cc7565b82525050565b610aac81610cb5565b82525050565b610abb81610cd9565b82525050565b6000610acc82610c68565b610ad68185610c73565b9350610ae6818560208601610d1e565b610aef81610e88565b840191505092915050565b610b0381610d05565b82525050565b6000602082019050610b1e6000830184610aa3565b92915050565b6000602082019050610b396000830184610ab2565b92915050565b600060a0820190508181036000830152610b598188610ac1565b9050610b686020830187610afa565b610b756040830186610a94565b610b826060830185610ab2565b610b8f6080830184610afa565b9695505050505050565b6000602082019050610bae6000830184610afa565b92915050565b600060a082019050610bc96000830188610afa565b610bd66020830187610afa565b610be36040830186610afa565b610bf06060830185610afa565b610bfd6080830184610aa3565b9695505050505050565b6000604051905081810181811067ffffffffffffffff82111715610c2e57610c2d610e59565b5b8060405250919050565b600067ffffffffffffffff821115610c5357610c52610e59565b5b601f19601f8301169050602081019050919050565b600081519050919050565b600082825260208201905092915050565b6000610c8f82610d05565b9150610c9a83610d05565b925082610caa57610ca9610dfb565b5b828204905092915050565b6000610cc082610ce5565b9050919050565b6000610cd282610ce5565b9050919050565b60008115159050919050565b600073ffffffffffffffffffffffffffffffffffffffff82169050919050565b6000819050919050565b82818337600083830152505050565b60005b83811015610d3c578082015181840152602081019050610d21565b83811115610d4b576000848401525b50505050565b60006002820490506001821680610d6957607f821691505b60208210811415610d7d57610d7c610e2a565b5b50919050565b6000610d8e82610d05565b91507fffffffffffffffffffffffffffffffffffffffffffffffffffffffffffffffff821415610dc157610dc0610dcc565b5b600182019050919050565b7f4e487b7100000000000000000000000000000000000000000000000000000000600052601160045260246000fd5b7f4e487b7100000000000000000000000000000000000000000000000000000000600052601260045260246000fd5b7f4e487b7100000000000000000000000000000000000000000000000000000000600052602260045260246000fd5b7f4e487b7100000000000000000000000000000000000000000000000000000000600052604160045260246000fd5b6000601f19601f8301169050919050565b610ea281610cb5565b8114610ead57600080fd5b50565b610eb981610cc7565b8114610ec457600080fd5b50565b610ed081610d05565b8114610edb57600080fd5b5056fea2646970667358221220bc8302e7b2c02cc0d7521c4c51a22832f19b9667b348f3c29b69332226373d7d64736f6c63430008000033","opcodes":"PUSH1 0x80 PUSH1 0x40 MSTORE CALLVALUE DUP1 ISZERO PUSH3 0x11 JUMPI PUSH1 0x0 DUP1 REVERT JUMPDEST POP PUSH1 0x40 MLOAD PUSH3 0x108C CODESIZE SUB DUP1 PUSH3 0x108C DUP4 CODECOPY DUP2 DUP2 ADD PUSH1 0x40 MSTORE DUP2 ADD SWAP1 PUSH3 0x37 SWAP2 SWAP1 PUSH3 0xB5 JUMP JUMPDEST DUP1 PUSH1 0x1 PUSH1 0x0 PUSH2 0x100 EXP DUP2 SLOAD DUP2 PUSH20 0xFFFFFFFFFFFFFFFFFFFFFFFFFFFFFFFFFFFFFFFF MUL NOT AND SWAP1 DUP4 PUSH20 0xFFFFFFFFFFFFFFFFFFFFFFFFFFFFFFFFFFFFFFFF AND MUL OR SWAP1 SSTORE POP DUP2 PUSH1 0x2 DUP2 SWAP1 SSTORE POP POP POP PUSH3 0x168 JUMP JUMPDEST PUSH1 0x0 DUP2 MLOAD SWAP1 POP PUSH3 0x98 DUP2 PUSH3 0x134 JUMP JUMPDEST SWAP3 SWAP2 POP POP JUMP JUMPDEST PUSH1 0x0 DUP2 MLOAD SWAP1 POP PUSH3 0xAF DUP2 PUSH3 0x14E JUMP JUMPDEST SWAP3 SWAP2 POP POP JUMP JUMPDEST PUSH1 0x0 DUP1 PUSH1 0x40 DUP4 DUP6 SUB SLT ISZERO PUSH3 0xC9 JUMPI PUSH1 0x0 DUP1 REVERT JUMPDEST PUSH1 0x0 PUSH3 0xD9 DUP6 DUP3 DUP7 ADD PUSH3 0x9E JUMP JUMPDEST SWAP3 POP POP PUSH1 0x20 PUSH3 0xEC DUP6 DUP3 DUP7 ADD PUSH3 0x87 JUMP JUMPDEST SWAP2 POP POP SWAP3 POP SWAP3 SWAP1 POP JUMP JUMPDEST PUSH1 0x0 PUSH3 0x103 DUP3 PUSH3 0x10A JUMP JUMPDEST SWAP1 POP SWAP2 SWAP1 POP JUMP JUMPDEST PUSH1 0x0 PUSH20 0xFFFFFFFFFFFFFFFFFFFFFFFFFFFFFFFFFFFFFFFF DUP3 AND SWAP1 POP SWAP2 SWAP1 POP JUMP JUMPDEST PUSH1 0x0 DUP2 SWAP1 POP SWAP2 SWAP1 POP JUMP JUMPDEST PUSH3 0x13F DUP2 PUSH3 0xF6 JUMP JUMPDEST DUP2 EQ PUSH3 0x14B JUMPI PUSH1 0x0 DUP1 REVERT JUMPDEST POP JUMP JUMPDEST PUSH3 0x159 DUP2 PUSH3 0x12A JUMP JUMPDEST DUP2 EQ PUSH3 0x165 JUMPI PUSH1 0x0 DUP1 REVERT JUMPDEST POP JUMP JUMPDEST PUSH2 0xF14 DUP1 PUSH3 0x178 PUSH1 0x0 CODECOPY PUSH1 0x0 RETURN INVALID PUSH1 0x80 PUSH1 0x40 MSTORE PUSH1 0x4 CALLDATASIZE LT PUSH2 0x9C JUMPI PUSH1 0x0 CALLDATALOAD PUSH1 0xE0 SHR DUP1 PUSH4 0x8810C6D9 GT PUSH2 0x64 JUMPI DUP1 PUSH4 0x8810C6D9 EQ PUSH2 0x18A JUMPI DUP1 PUSH4 0x937E09B1 EQ PUSH2 0x1B3 JUMPI DUP1 PUSH4 0xA00C96D7 EQ PUSH2 0x1DE JUMPI DUP1 PUSH4 0xD7BB99BA EQ PUSH2 0x20D JUMPI DUP1 PUSH4 0xEB7C9919 EQ PUSH2 0x217 JUMPI DUP1 PUSH4 0xFB5E76E6 EQ PUSH2 0x254 JUMPI PUSH2 0x9C JUMP JUMPDEST DUP1 PUSH4 0x2A76083B EQ PUSH2 0xA1 JUMPI DUP1 PUSH4 0x3410452A EQ PUSH2 0xCC JUMPI DUP1 PUSH4 0x5F875BCD EQ PUSH2 0xF7 JUMPI DUP1 PUSH4 0x6CF87862 EQ PUSH2 0x120 JUMPI DUP1 PUSH4 0x81D12C58 EQ PUSH2 0x149 JUMPI JUMPDEST PUSH1 0x0 DUP1 REVERT JUMPDEST CALLVALUE DUP1 ISZERO PUSH2 0xAD JUMPI PUSH1 0x0 DUP1 REVERT JUMPDEST POP PUSH2 0xB6 PUSH2 0x27F JUMP JUMPDEST PUSH1 0x40 MLOAD PUSH2 0xC3 SWAP2 SWAP1 PUSH2 0xB99 JUMP JUMPDEST PUSH1 0x40 MLOAD DUP1 SWAP2 SUB SWAP1 RETURN JUMPDEST CALLVALUE DUP1 ISZERO PUSH2 0xD8 JUMPI PUSH1 0x0 DUP1 REVERT JUMPDEST POP PUSH2 0xE1 PUSH2 0x285 JUMP JUMPDEST PUSH1 0x40 MLOAD PUSH2 0xEE SWAP2 SWAP1 PUSH2 0xB99 JUMP JUMPDEST PUSH1 0x40 MLOAD DUP1 SWAP2 SUB SWAP1 RETURN JUMPDEST CALLVALUE DUP1 ISZERO PUSH2 0x103 JUMPI PUSH1 0x0 DUP1 REVERT JUMPDEST POP PUSH2 0x11E PUSH1 0x4 DUP1 CALLDATASIZE SUB DUP2 ADD SWAP1 PUSH2 0x119 SWAP2 SWAP1 PUSH2 0xA6B JUMP JUMPDEST PUSH2 0x291 JUMP JUMPDEST STOP JUMPDEST CALLVALUE DUP1 ISZERO PUSH2 0x12C JUMPI PUSH1 0x0 DUP1 REVERT JUMPDEST POP PUSH2 0x147 PUSH1 0x4 DUP1 CALLDATASIZE SUB DUP2 ADD SWAP1 PUSH2 0x142 SWAP2 SWAP1 PUSH2 0xA6B JUMP JUMPDEST PUSH2 0x400 JUMP JUMPDEST STOP JUMPDEST CALLVALUE DUP1 ISZERO PUSH2 0x155 JUMPI PUSH1 0x0 DUP1 REVERT JUMPDEST POP PUSH2 0x170 PUSH1 0x4 DUP1 CALLDATASIZE SUB DUP2 ADD SWAP1 PUSH2 0x16B SWAP2 SWAP1 PUSH2 0xA6B JUMP JUMPDEST PUSH2 0x572 JUMP JUMPDEST PUSH1 0x40 MLOAD PUSH2 0x181 SWAP6 SWAP5 SWAP4 SWAP3 SWAP2 SWAP1 PUSH2 0xB3F JUMP JUMPDEST PUSH1 0x40 MLOAD DUP1 SWAP2 SUB SWAP1 RETURN JUMPDEST CALLVALUE DUP1 ISZERO PUSH2 0x196 JUMPI PUSH1 0x0 DUP1 REVERT JUMPDEST POP PUSH2 0x1B1 PUSH1 0x4 DUP1 CALLDATASIZE SUB DUP2 ADD SWAP1 PUSH2 0x1AC SWAP2 SWAP1 PUSH2 0xA04 JUMP JUMPDEST PUSH2 0x66D JUMP JUMPDEST STOP JUMPDEST CALLVALUE DUP1 ISZERO PUSH2 0x1BF JUMPI PUSH1 0x0 DUP1 REVERT JUMPDEST POP PUSH2 0x1C8 PUSH2 0x77C JUMP JUMPDEST PUSH1 0x40 MLOAD PUSH2 0x1D5 SWAP2 SWAP1 PUSH2 0xB99 JUMP JUMPDEST PUSH1 0x40 MLOAD DUP1 SWAP2 SUB SWAP1 RETURN JUMPDEST CALLVALUE DUP1 ISZERO PUSH2 0x1EA JUMPI PUSH1 0x0 DUP1 REVERT JUMPDEST POP PUSH2 0x1F3 PUSH2 0x782 JUMP JUMPDEST PUSH1 0x40 MLOAD PUSH2 0x204 SWAP6 SWAP5 SWAP4 SWAP3 SWAP2 SWAP1 PUSH2 0xBB4 JUMP JUMPDEST PUSH1 0x40 MLOAD DUP1 SWAP2 SUB SWAP1 RETURN JUMPDEST PUSH2 0x215 PUSH2 0x7CB JUMP JUMPDEST STOP JUMPDEST CALLVALUE DUP1 ISZERO PUSH2 0x223 JUMPI PUSH1 0x0 DUP1 REVERT JUMPDEST POP PUSH2 0x23E PUSH1 0x4 DUP1 CALLDATASIZE SUB DUP2 ADD SWAP1 PUSH2 0x239 SWAP2 SWAP1 PUSH2 0x9DB JUMP JUMPDEST PUSH2 0x84B JUMP JUMPDEST PUSH1 0x40 MLOAD PUSH2 0x24B SWAP2 SWAP1 PUSH2 0xB24 JUMP JUMPDEST PUSH1 0x40 MLOAD DUP1 SWAP2 SUB SWAP1 RETURN JUMPDEST CALLVALUE DUP1 ISZERO PUSH2 0x260 JUMPI PUSH1 0x0 DUP1 REVERT JUMPDEST POP PUSH2 0x269 PUSH2 0x86B JUMP JUMPDEST PUSH1 0x40 MLOAD PUSH2 0x276 SWAP2 SWAP1 PUSH2 0xB09 JUMP JUMPDEST PUSH1 0x40 MLOAD DUP1 SWAP2 SUB SWAP1 RETURN JUMPDEST PUSH1 0x4 SLOAD DUP2 JUMP JUMPDEST PUSH1 0x0 DUP1 DUP1 SLOAD SWAP1 POP SWAP1 POP SWAP1 JUMP JUMPDEST PUSH1 0x1 PUSH1 0x0 SWAP1 SLOAD SWAP1 PUSH2 0x100 EXP SWAP1 DIV PUSH20 0xFFFFFFFFFFFFFFFFFFFFFFFFFFFFFFFFFFFFFFFF AND PUSH20 0xFFFFFFFFFFFFFFFFFFFFFFFFFFFFFFFFFFFFFFFF AND CALLER PUSH20 0xFFFFFFFFFFFFFFFFFFFFFFFFFFFFFFFFFFFFFFFF AND EQ PUSH2 0x2EB JUMPI PUSH1 0x0 DUP1 REVERT JUMPDEST PUSH1 0x0 DUP1 DUP3 DUP2 SLOAD DUP2 LT PUSH2 0x326 JUMPI PUSH32 0x4E487B7100000000000000000000000000000000000000000000000000000000 PUSH1 0x0 MSTORE PUSH1 0x32 PUSH1 0x4 MSTORE PUSH1 0x24 PUSH1 0x0 REVERT JUMPDEST SWAP1 PUSH1 0x0 MSTORE PUSH1 0x20 PUSH1 0x0 KECCAK256 SWAP1 PUSH1 0x5 MUL ADD SWAP1 POP PUSH1 0x2 PUSH1 0x4 SLOAD PUSH2 0x345 SWAP2 SWAP1 PUSH2 0xC84 JUMP JUMPDEST DUP2 PUSH1 0x3 ADD SLOAD GT PUSH2 0x354 JUMPI PUSH1 0x0 DUP1 REVERT JUMPDEST DUP1 PUSH1 0x2 ADD PUSH1 0x14 SWAP1 SLOAD SWAP1 PUSH2 0x100 EXP SWAP1 DIV PUSH1 0xFF AND ISZERO PUSH2 0x370 JUMPI PUSH1 0x0 DUP1 REVERT JUMPDEST DUP1 PUSH1 0x2 ADD PUSH1 0x0 SWAP1 SLOAD SWAP1 PUSH2 0x100 EXP SWAP1 DIV PUSH20 0xFFFFFFFFFFFFFFFFFFFFFFFFFFFFFFFFFFFFFFFF AND PUSH20 0xFFFFFFFFFFFFFFFFFFFFFFFFFFFFFFFFFFFFFFFF AND PUSH2 0x8FC DUP3 PUSH1 0x1 ADD SLOAD SWAP1 DUP2 ISZERO MUL SWAP1 PUSH1 0x40 MLOAD PUSH1 0x0 PUSH1 0x40 MLOAD DUP1 DUP4 SUB DUP2 DUP6 DUP9 DUP9 CALL SWAP4 POP POP POP POP ISZERO DUP1 ISZERO PUSH2 0x3DE JUMPI RETURNDATASIZE PUSH1 0x0 DUP1 RETURNDATACOPY RETURNDATASIZE PUSH1 0x0 REVERT JUMPDEST POP PUSH1 0x1 DUP2 PUSH1 0x2 ADD PUSH1 0x14 PUSH2 0x100 EXP DUP2 SLOAD DUP2 PUSH1 0xFF MUL NOT AND SWAP1 DUP4 ISZERO ISZERO MUL OR SWAP1 SSTORE POP POP POP JUMP JUMPDEST PUSH1 0x0 DUP1 DUP3 DUP2 SLOAD DUP2 LT PUSH2 0x43B JUMPI PUSH32 0x4E487B7100000000000000000000000000000000000000000000000000000000 PUSH1 0x0 MSTORE PUSH1 0x32 PUSH1 0x4 MSTORE PUSH1 0x24 PUSH1 0x0 REVERT JUMPDEST SWAP1 PUSH1 0x0 MSTORE PUSH1 0x20 PUSH1 0x0 KECCAK256 SWAP1 PUSH1 0x5 MUL ADD SWAP1 POP PUSH1 0x3 PUSH1 0x0 CALLER PUSH20 0xFFFFFFFFFFFFFFFFFFFFFFFFFFFFFFFFFFFFFFFF AND PUSH20 0xFFFFFFFFFFFFFFFFFFFFFFFFFFFFFFFFFFFFFFFF AND DUP2 MSTORE PUSH1 0x20 ADD SWAP1 DUP2 MSTORE PUSH1 0x20 ADD PUSH1 0x0 KECCAK256 PUSH1 0x0 SWAP1 SLOAD SWAP1 PUSH2 0x100 EXP SWAP1 DIV PUSH1 0xFF AND PUSH2 0x4A1 JUMPI PUSH1 0x0 DUP1 REVERT JUMPDEST DUP1 PUSH1 0x4 ADD PUSH1 0x0 CALLER PUSH20 0xFFFFFFFFFFFFFFFFFFFFFFFFFFFFFFFFFFFFFFFF AND PUSH20 0xFFFFFFFFFFFFFFFFFFFFFFFFFFFFFFFFFFFFFFFF AND DUP2 MSTORE PUSH1 0x20 ADD SWAP1 DUP2 MSTORE PUSH1 0x20 ADD PUSH1 0x0 KECCAK256 PUSH1 0x0 SWAP1 SLOAD SWAP1 PUSH2 0x100 EXP SWAP1 DIV PUSH1 0xFF AND ISZERO PUSH2 0x4FA JUMPI PUSH1 0x0 DUP1 REVERT JUMPDEST PUSH1 0x1 DUP2 PUSH1 0x4 ADD PUSH1 0x0 CALLER PUSH20 0xFFFFFFFFFFFFFFFFFFFFFFFFFFFFFFFFFFFFFFFF AND PUSH20 0xFFFFFFFFFFFFFFFFFFFFFFFFFFFFFFFFFFFFFFFF AND DUP2 MSTORE PUSH1 0x20 ADD SWAP1 DUP2 MSTORE PUSH1 0x20 ADD PUSH1 0x0 KECCAK256 PUSH1 0x0 PUSH2 0x100 EXP DUP2 SLOAD DUP2 PUSH1 0xFF MUL NOT AND SWAP1 DUP4 ISZERO ISZERO MUL OR SWAP1 SSTORE POP DUP1 PUSH1 0x3 ADD PUSH1 0x0 DUP2 SLOAD DUP1 SWAP3 SWAP2 SWAP1 PUSH2 0x569 SWAP1 PUSH2 0xD83 JUMP JUMPDEST SWAP2 SWAP1 POP SSTORE POP POP POP JUMP JUMPDEST PUSH1 0x0 DUP2 DUP2 SLOAD DUP2 LT PUSH2 0x582 JUMPI PUSH1 0x0 DUP1 REVERT JUMPDEST SWAP1 PUSH1 0x0 MSTORE PUSH1 0x20 PUSH1 0x0 KECCAK256 SWAP1 PUSH1 0x5 MUL ADD PUSH1 0x0 SWAP2 POP SWAP1 POP DUP1 PUSH1 0x0 ADD DUP1 SLOAD PUSH2 0x5A5 SWAP1 PUSH2 0xD51 JUMP JUMPDEST DUP1 PUSH1 0x1F ADD PUSH1 0x20 DUP1 SWAP2 DIV MUL PUSH1 0x20 ADD PUSH1 0x40 MLOAD SWAP1 DUP2 ADD PUSH1 0x40 MSTORE DUP1 SWAP3 SWAP2 SWAP1 DUP2 DUP2 MSTORE PUSH1 0x20 ADD DUP3 DUP1 SLOAD PUSH2 0x5D1 SWAP1 PUSH2 0xD51 JUMP JUMPDEST DUP1 ISZERO PUSH2 0x61E JUMPI DUP1 PUSH1 0x1F LT PUSH2 0x5F3 JUMPI PUSH2 0x100 DUP1 DUP4 SLOAD DIV MUL DUP4 MSTORE SWAP2 PUSH1 0x20 ADD SWAP2 PUSH2 0x61E JUMP JUMPDEST DUP3 ADD SWAP2 SWAP1 PUSH1 0x0 MSTORE PUSH1 0x20 PUSH1 0x0 KECCAK256 SWAP1 JUMPDEST DUP2 SLOAD DUP2 MSTORE SWAP1 PUSH1 0x1 ADD SWAP1 PUSH1 0x20 ADD DUP1 DUP4 GT PUSH2 0x601 JUMPI DUP3 SWAP1 SUB PUSH1 0x1F AND DUP3 ADD SWAP2 JUMPDEST POP POP POP POP POP SWAP1 DUP1 PUSH1 0x1 ADD SLOAD SWAP1 DUP1 PUSH1 0x2 ADD PUSH1 0x0 SWAP1 SLOAD SWAP1 PUSH2 0x100 EXP SWAP1 DIV PUSH20 0xFFFFFFFFFFFFFFFFFFFFFFFFFFFFFFFFFFFFFFFF AND SWAP1 DUP1 PUSH1 0x2 ADD PUSH1 0x14 SWAP1 SLOAD SWAP1 PUSH2 0x100 EXP SWAP1 DIV PUSH1 0xFF AND SWAP1 DUP1 PUSH1 0x3 ADD SLOAD SWAP1 POP DUP6 JUMP JUMPDEST PUSH1 0x1 PUSH1 0x0 SWAP1 SLOAD SWAP1 PUSH2 0x100 EXP SWAP1 DIV PUSH20 0xFFFFFFFFFFFFFFFFFFFFFFFFFFFFFFFFFFFFFFFF AND PUSH20 0xFFFFFFFFFFFFFFFFFFFFFFFFFFFFFFFFFFFFFFFF AND CALLER PUSH20 0xFFFFFFFFFFFFFFFFFFFFFFFFFFFFFFFFFFFFFFFF AND EQ PUSH2 0x6C7 JUMPI PUSH1 0x0 DUP1 REVERT JUMPDEST PUSH1 0x0 DUP1 PUSH1 0x1 DUP2 PUSH1 0x1 DUP2 SLOAD ADD DUP1 DUP3 SSTORE DUP1 SWAP2 POP POP SUB SWAP1 PUSH1 0x0 MSTORE PUSH1 0x20 PUSH1 0x0 KECCAK256 SWAP1 PUSH1 0x5 MUL ADD SWAP1 POP DUP4 DUP2 PUSH1 0x0 ADD SWAP1 DUP1 MLOAD SWAP1 PUSH1 0x20 ADD SWAP1 PUSH2 0x702 SWAP3 SWAP2 SWAP1 PUSH2 0x891 JUMP JUMPDEST POP DUP3 DUP2 PUSH1 0x1 ADD DUP2 SWAP1 SSTORE POP DUP2 DUP2 PUSH1 0x2 ADD PUSH1 0x0 PUSH2 0x100 EXP DUP2 SLOAD DUP2 PUSH20 0xFFFFFFFFFFFFFFFFFFFFFFFFFFFFFFFFFFFFFFFF MUL NOT AND SWAP1 DUP4 PUSH20 0xFFFFFFFFFFFFFFFFFFFFFFFFFFFFFFFFFFFFFFFF AND MUL OR SWAP1 SSTORE POP PUSH1 0x0 DUP2 PUSH1 0x2 ADD PUSH1 0x14 PUSH2 0x100 EXP DUP2 SLOAD DUP2 PUSH1 0xFF MUL NOT AND SWAP1 DUP4 ISZERO ISZERO MUL OR SWAP1 SSTORE POP PUSH1 0x0 DUP2 PUSH1 0x3 ADD DUP2 SWAP1 SSTORE POP POP POP POP POP JUMP JUMPDEST PUSH1 0x2 SLOAD DUP2 JUMP JUMPDEST PUSH1 0x0 DUP1 PUSH1 0x0 DUP1 PUSH1 0x0 PUSH1 0x2 SLOAD SELFBALANCE PUSH1 0x0 DUP1 SLOAD SWAP1 POP PUSH1 0x4 SLOAD PUSH1 0x1 PUSH1 0x0 SWAP1 SLOAD SWAP1 PUSH2 0x100 EXP SWAP1 DIV PUSH20 0xFFFFFFFFFFFFFFFFFFFFFFFFFFFFFFFFFFFFFFFF AND SWAP5 POP SWAP5 POP SWAP5 POP SWAP5 POP SWAP5 POP SWAP1 SWAP2 SWAP3 SWAP4 SWAP5 JUMP JUMPDEST PUSH1 0x2 SLOAD CALLVALUE GT PUSH2 0x7D9 JUMPI PUSH1 0x0 DUP1 REVERT JUMPDEST PUSH1 0x1 PUSH1 0x3 PUSH1 0x0 CALLER PUSH20 0xFFFFFFFFFFFFFFFFFFFFFFFFFFFFFFFFFFFFFFFF AND PUSH20 0xFFFFFFFFFFFFFFFFFFFFFFFFFFFFFFFFFFFFFFFF AND DUP2 MSTORE PUSH1 0x20 ADD SWAP1 DUP2 MSTORE PUSH1 0x20 ADD PUSH1 0x0 KECCAK256 PUSH1 0x0 PUSH2 0x100 EXP DUP2 SLOAD DUP2 PUSH1 0xFF MUL NOT AND SWAP1 DUP4 ISZERO ISZERO MUL OR SWAP1 SSTORE POP PUSH1 0x4 PUSH1 0x0 DUP2 SLOAD DUP1 SWAP3 SWAP2 SWAP1 PUSH2 0x844 SWAP1 PUSH2 0xD83 JUMP JUMPDEST SWAP2 SWAP1 POP SSTORE POP JUMP JUMPDEST PUSH1 0x3 PUSH1 0x20 MSTORE DUP1 PUSH1 0x0 MSTORE PUSH1 0x40 PUSH1 0x0 KECCAK256 PUSH1 0x0 SWAP2 POP SLOAD SWAP1 PUSH2 0x100 EXP SWAP1 DIV PUSH1 0xFF AND DUP2 JUMP JUMPDEST PUSH1 0x1 PUSH1 0x0 SWAP1 SLOAD SWAP1 PUSH2 0x100 EXP SWAP1 DIV PUSH20 0xFFFFFFFFFFFFFFFFFFFFFFFFFFFFFFFFFFFFFFFF AND DUP2 JUMP JUMPDEST DUP3 DUP1 SLOAD PUSH2 0x89D SWAP1 PUSH2 0xD51 JUMP JUMPDEST SWAP1 PUSH1 0x0 MSTORE PUSH1 0x20 PUSH1 0x0 KECCAK256 SWAP1 PUSH1 0x1F ADD PUSH1 0x20 SWAP1 DIV DUP2 ADD SWAP3 DUP3 PUSH2 0x8BF JUMPI PUSH1 0x0 DUP6 SSTORE PUSH2 0x906 JUMP JUMPDEST DUP3 PUSH1 0x1F LT PUSH2 0x8D8 JUMPI DUP1 MLOAD PUSH1 0xFF NOT AND DUP4 DUP1 ADD OR DUP6 SSTORE PUSH2 0x906 JUMP JUMPDEST DUP3 DUP1 ADD PUSH1 0x1 ADD DUP6 SSTORE DUP3 ISZERO PUSH2 0x906 JUMPI SWAP2 DUP3 ADD JUMPDEST DUP3 DUP2 GT ISZERO PUSH2 0x905 JUMPI DUP3 MLOAD DUP3 SSTORE SWAP2 PUSH1 0x20 ADD SWAP2 SWAP1 PUSH1 0x1 ADD SWAP1 PUSH2 0x8EA JUMP JUMPDEST JUMPDEST POP SWAP1 POP PUSH2 0x913 SWAP2 SWAP1 PUSH2 0x917 JUMP JUMPDEST POP SWAP1 JUMP JUMPDEST JUMPDEST DUP1 DUP3 GT ISZERO PUSH2 0x930 JUMPI PUSH1 0x0 DUP2 PUSH1 0x0 SWAP1 SSTORE POP PUSH1 0x1 ADD PUSH2 0x918 JUMP JUMPDEST POP SWAP1 JUMP JUMPDEST PUSH1 0x0 PUSH2 0x947 PUSH2 0x942 DUP5 PUSH2 0xC38 JUMP JUMPDEST PUSH2 0xC07 JUMP JUMPDEST SWAP1 POP DUP3 DUP2 MSTORE PUSH1 0x20 DUP2 ADD DUP5 DUP5 DUP5 ADD GT ISZERO PUSH2 0x95F JUMPI PUSH1 0x0 DUP1 REVERT JUMPDEST PUSH2 0x96A DUP5 DUP3 DUP6 PUSH2 0xD0F JUMP JUMPDEST POP SWAP4 SWAP3 POP POP POP JUMP JUMPDEST PUSH1 0x0 DUP2 CALLDATALOAD SWAP1 POP PUSH2 0x981 DUP2 PUSH2 0xE99 JUMP JUMPDEST SWAP3 SWAP2 POP POP JUMP JUMPDEST PUSH1 0x0 DUP2 CALLDATALOAD SWAP1 POP PUSH2 0x996 DUP2 PUSH2 0xEB0 JUMP JUMPDEST SWAP3 SWAP2 POP POP JUMP JUMPDEST PUSH1 0x0 DUP3 PUSH1 0x1F DUP4 ADD SLT PUSH2 0x9AD JUMPI PUSH1 0x0 DUP1 REVERT JUMPDEST DUP2 CALLDATALOAD PUSH2 0x9BD DUP5 DUP3 PUSH1 0x20 DUP7 ADD PUSH2 0x934 JUMP JUMPDEST SWAP2 POP POP SWAP3 SWAP2 POP POP JUMP JUMPDEST PUSH1 0x0 DUP2 CALLDATALOAD SWAP1 POP PUSH2 0x9D5 DUP2 PUSH2 0xEC7 JUMP JUMPDEST SWAP3 SWAP2 POP POP JUMP JUMPDEST PUSH1 0x0 PUSH1 0x20 DUP3 DUP5 SUB SLT ISZERO PUSH2 0x9ED JUMPI PUSH1 0x0 DUP1 REVERT JUMPDEST PUSH1 0x0 PUSH2 0x9FB DUP5 DUP3 DUP6 ADD PUSH2 0x972 JUMP JUMPDEST SWAP2 POP POP SWAP3 SWAP2 POP POP JUMP JUMPDEST PUSH1 0x0 DUP1 PUSH1 0x0 PUSH1 0x60 DUP5 DUP7 SUB SLT ISZERO PUSH2 0xA19 JUMPI PUSH1 0x0 DUP1 REVERT JUMPDEST PUSH1 0x0 DUP5 ADD CALLDATALOAD PUSH8 0xFFFFFFFFFFFFFFFF DUP2 GT ISZERO PUSH2 0xA33 JUMPI PUSH1 0x0 DUP1 REVERT JUMPDEST PUSH2 0xA3F DUP7 DUP3 DUP8 ADD PUSH2 0x99C JUMP JUMPDEST SWAP4 POP POP PUSH1 0x20 PUSH2 0xA50 DUP7 DUP3 DUP8 ADD PUSH2 0x9C6 JUMP JUMPDEST SWAP3 POP POP PUSH1 0x40 PUSH2 0xA61 DUP7 DUP3 DUP8 ADD PUSH2 0x987 JUMP JUMPDEST SWAP2 POP POP SWAP3 POP SWAP3 POP SWAP3 JUMP JUMPDEST PUSH1 0x0 PUSH1 0x20 DUP3 DUP5 SUB SLT ISZERO PUSH2 0xA7D JUMPI PUSH1 0x0 DUP1 REVERT JUMPDEST PUSH1 0x0 PUSH2 0xA8B DUP5 DUP3 DUP6 ADD PUSH2 0x9C6 JUMP JUMPDEST SWAP2 POP POP SWAP3 SWAP2 POP POP JUMP JUMPDEST PUSH2 0xA9D DUP2 PUSH2 0xCC7 JUMP JUMPDEST DUP3 MSTORE POP POP JUMP JUMPDEST PUSH2 0xAAC DUP2 PUSH2 0xCB5 JUMP JUMPDEST DUP3 MSTORE POP POP JUMP JUMPDEST PUSH2 0xABB DUP2 PUSH2 0xCD9 JUMP JUMPDEST DUP3 MSTORE POP POP JUMP JUMPDEST PUSH1 0x0 PUSH2 0xACC DUP3 PUSH2 0xC68 JUMP JUMPDEST PUSH2 0xAD6 DUP2 DUP6 PUSH2 0xC73 JUMP JUMPDEST SWAP4 POP PUSH2 0xAE6 DUP2 DUP6 PUSH1 0x20 DUP7 ADD PUSH2 0xD1E JUMP JUMPDEST PUSH2 0xAEF DUP2 PUSH2 0xE88 JUMP JUMPDEST DUP5 ADD SWAP2 POP POP SWAP3 SWAP2 POP POP JUMP JUMPDEST PUSH2 0xB03 DUP2 PUSH2 0xD05 JUMP JUMPDEST DUP3 MSTORE POP POP JUMP JUMPDEST PUSH1 0x0 PUSH1 0x20 DUP3 ADD SWAP1 POP PUSH2 0xB1E PUSH1 0x0 DUP4 ADD DUP5 PUSH2 0xAA3 JUMP JUMPDEST SWAP3 SWAP2 POP POP JUMP JUMPDEST PUSH1 0x0 PUSH1 0x20 DUP3 ADD SWAP1 POP PUSH2 0xB39 PUSH1 0x0 DUP4 ADD DUP5 PUSH2 0xAB2 JUMP JUMPDEST SWAP3 SWAP2 POP POP JUMP JUMPDEST PUSH1 0x0 PUSH1 0xA0 DUP3 ADD SWAP1 POP DUP2 DUP2 SUB PUSH1 0x0 DUP4 ADD MSTORE PUSH2 0xB59 DUP2 DUP9 PUSH2 0xAC1 JUMP JUMPDEST SWAP1 POP PUSH2 0xB68 PUSH1 0x20 DUP4 ADD DUP8 PUSH2 0xAFA JUMP JUMPDEST PUSH2 0xB75 PUSH1 0x40 DUP4 ADD DUP7 PUSH2 0xA94 JUMP JUMPDEST PUSH2 0xB82 PUSH1 0x60 DUP4 ADD DUP6 PUSH2 0xAB2 JUMP JUMPDEST PUSH2 0xB8F PUSH1 0x80 DUP4 ADD DUP5 PUSH2 0xAFA JUMP JUMPDEST SWAP7 SWAP6 POP POP POP POP POP POP JUMP JUMPDEST PUSH1 0x0 PUSH1 0x20 DUP3 ADD SWAP1 POP PUSH2 0xBAE PUSH1 0x0 DUP4 ADD DUP5 PUSH2 0xAFA JUMP JUMPDEST SWAP3 SWAP2 POP POP JUMP JUMPDEST PUSH1 0x0 PUSH1 0xA0 DUP3 ADD SWAP1 POP PUSH2 0xBC9 PUSH1 0x0 DUP4 ADD DUP9 PUSH2 0xAFA JUMP JUMPDEST PUSH2 0xBD6 PUSH1 0x20 DUP4 ADD DUP8 PUSH2 0xAFA JUMP JUMPDEST PUSH2 0xBE3 PUSH1 0x40 DUP4 ADD DUP7 PUSH2 0xAFA JUMP JUMPDEST PUSH2 0xBF0 PUSH1 0x60 DUP4 ADD DUP6 PUSH2 0xAFA JUMP JUMPDEST PUSH2 0xBFD PUSH1 0x80 DUP4 ADD DUP5 PUSH2 0xAA3 JUMP JUMPDEST SWAP7 SWAP6 POP POP POP POP POP POP JUMP JUMPDEST PUSH1 0x0 PUSH1 0x40 MLOAD SWAP1 POP DUP2 DUP2 ADD DUP2 DUP2 LT PUSH8 0xFFFFFFFFFFFFFFFF DUP3 GT OR ISZERO PUSH2 0xC2E JUMPI PUSH2 0xC2D PUSH2 0xE59 JUMP JUMPDEST JUMPDEST DUP1 PUSH1 0x40 MSTORE POP SWAP2 SWAP1 POP JUMP JUMPDEST PUSH1 0x0 PUSH8 0xFFFFFFFFFFFFFFFF DUP3 GT ISZERO PUSH2 0xC53 JUMPI PUSH2 0xC52 PUSH2 0xE59 JUMP JUMPDEST JUMPDEST PUSH1 0x1F NOT PUSH1 0x1F DUP4 ADD AND SWAP1 POP PUSH1 0x20 DUP2 ADD SWAP1 POP SWAP2 SWAP1 POP JUMP JUMPDEST PUSH1 0x0 DUP2 MLOAD SWAP1 POP SWAP2 SWAP1 POP JUMP JUMPDEST PUSH1 0x0 DUP3 DUP3 MSTORE PUSH1 0x20 DUP3 ADD SWAP1 POP SWAP3 SWAP2 POP POP JUMP JUMPDEST PUSH1 0x0 PUSH2 0xC8F DUP3 PUSH2 0xD05 JUMP JUMPDEST SWAP2 POP PUSH2 0xC9A DUP4 PUSH2 0xD05 JUMP JUMPDEST SWAP3 POP DUP3 PUSH2 0xCAA JUMPI PUSH2 0xCA9 PUSH2 0xDFB JUMP JUMPDEST JUMPDEST DUP3 DUP3 DIV SWAP1 POP SWAP3 SWAP2 POP POP JUMP JUMPDEST PUSH1 0x0 PUSH2 0xCC0 DUP3 PUSH2 0xCE5 JUMP JUMPDEST SWAP1 POP SWAP2 SWAP1 POP JUMP JUMPDEST PUSH1 0x0 PUSH2 0xCD2 DUP3 PUSH2 0xCE5 JUMP JUMPDEST SWAP1 POP SWAP2 SWAP1 POP JUMP JUMPDEST PUSH1 0x0 DUP2 ISZERO ISZERO SWAP1 POP SWAP2 SWAP1 POP JUMP JUMPDEST PUSH1 0x0 PUSH20 0xFFFFFFFFFFFFFFFFFFFFFFFFFFFFFFFFFFFFFFFF DUP3 AND SWAP1 POP SWAP2 SWAP1 POP JUMP JUMPDEST PUSH1 0x0 DUP2 SWAP1 POP SWAP2 SWAP1 POP JUMP JUMPDEST DUP3 DUP2 DUP4 CALLDATACOPY PUSH1 0x0 DUP4 DUP4 ADD MSTORE POP POP POP JUMP JUMPDEST PUSH1 0x0 JUMPDEST DUP4 DUP2 LT ISZERO PUSH2 0xD3C JUMPI DUP1 DUP3 ADD MLOAD DUP2 DUP5 ADD MSTORE PUSH1 0x20 DUP2 ADD SWAP1 POP PUSH2 0xD21 JUMP JUMPDEST DUP4 DUP2 GT ISZERO PUSH2 0xD4B JUMPI PUSH1 0x0 DUP5 DUP5 ADD MSTORE JUMPDEST POP POP POP POP JUMP JUMPDEST PUSH1 0x0 PUSH1 0x2 DUP3 DIV SWAP1 POP PUSH1 0x1 DUP3 AND DUP1 PUSH2 0xD69 JUMPI PUSH1 0x7F DUP3 AND SWAP2 POP JUMPDEST PUSH1 0x20 DUP3 LT DUP2 EQ ISZERO PUSH2 0xD7D JUMPI PUSH2 0xD7C PUSH2 0xE2A JUMP JUMPDEST JUMPDEST POP SWAP2 SWAP1 POP JUMP JUMPDEST PUSH1 0x0 PUSH2 0xD8E DUP3 PUSH2 0xD05 JUMP JUMPDEST SWAP2 POP PUSH32 0xFFFFFFFFFFFFFFFFFFFFFFFFFFFFFFFFFFFFFFFFFFFFFFFFFFFFFFFFFFFFFFFF DUP3 EQ ISZERO PUSH2 0xDC1 JUMPI PUSH2 0xDC0 PUSH2 0xDCC JUMP JUMPDEST JUMPDEST PUSH1 0x1 DUP3 ADD SWAP1 POP SWAP2 SWAP1 POP JUMP JUMPDEST PUSH32 0x4E487B7100000000000000000000000000000000000000000000000000000000 PUSH1 0x0 MSTORE PUSH1 0x11 PUSH1 0x4 MSTORE PUSH1 0x24 PUSH1 0x0 REVERT JUMPDEST PUSH32 0x4E487B7100000000000000000000000000000000000000000000000000000000 PUSH1 0x0 MSTORE PUSH1 0x12 PUSH1 0x4 MSTORE PUSH1 0x24 PUSH1 0x0 REVERT JUMPDEST PUSH32 0x4E487B7100000000000000000000000000000000000000000000000000000000 PUSH1 0x0 MSTORE PUSH1 0x22 PUSH1 0x4 MSTORE PUSH1 0x24 PUSH1 0x0 REVERT JUMPDEST PUSH32 0x4E487B7100000000000000000000000000000000000000000000000000000000 PUSH1 0x0 MSTORE PUSH1 0x41 PUSH1 0x4 MSTORE PUSH1 0x24 PUSH1 0x0 REVERT JUMPDEST PUSH1 0x0 PUSH1 0x1F NOT PUSH1 0x1F DUP4 ADD AND SWAP1 POP SWAP2 SWAP1 POP JUMP JUMPDEST PUSH2 0xEA2 DUP2 PUSH2 0xCB5 JUMP JUMPDEST DUP2 EQ PUSH2 0xEAD JUMPI PUSH1 0x0 DUP1 REVERT JUMPDEST POP JUMP JUMPDEST PUSH2 0xEB9 DUP2 PUSH2 0xCC7 JUMP JUMPDEST DUP2 EQ PUSH2 0xEC4 JUMPI PUSH1 0x0 DUP1 REVERT JUMPDEST POP JUMP JUMPDEST PUSH2 0xED0 DUP2 PUSH2 0xD05 JUMP JUMPDEST DUP2 EQ PUSH2 0xEDB JUMPI PUSH1 0x0 DUP1 REVERT JUMPDEST POP JUMP INVALID LOG2 PUSH5 0x6970667358 0x22 SLT KECCAK256 0xBC DUP4 MUL 0xE7 0xB2 0xC0 0x2C 0xC0 0xD7 MSTORE SHR 0x4C MLOAD LOG2 0x28 ORIGIN CALL SWAP12 SWAP7 PUSH8 0xB348F3C29B693322 0x26 CALLDATACOPY RETURNDATASIZE PUSH30 0x64736F6C6343000800003300000000000000000000000000000000000000 "},"gasEstimates":{"creation":{"codeDepositCost":"772000","executionCost":"infinite","totalCost":"infinite"},"external":{"approveSpendingRequest(uint256)":"infinite","campaignContributors(address)":"1633","campaignContributorsCount()":"1130","campaignManager()":"1324","contribute()":"42924","createSpendingRequest(string,uint256,address)":"infinite","finalizeSpendingRequest(uint256)":"infinite","getCampaignSummary()":"infinite","getRequestsCount()":"1168","minimumContribution()":"1151","requests(uint256)":"infinite"}},"methodIdentifiers":{"approveSpendingRequest(uint256)":"6cf87862","campaignContributors(address)":"eb7c9919","campaignContributorsCount()":"2a76083b","campaignManager()":"fb5e76e6","contribute()":"d7bb99ba","createSpendingRequest(string,uint256,address)":"8810c6d9","finalizeSpendingRequest(uint256)":"5f875bcd","getCampaignSummary()":"a00c96d7","getRequestsCount()":"3410452a","minimumContribution()":"937e09b1","requests(uint256)":"81d12c58"}},"storageLayout":{"storage":[{"astId":58,"contract":"Campaign.sol:Campaign","label":"requests","offset":0,"slot":"0","type":"t_array(t_struct(SpendingRequest)54_storage)dyn_storage"},{"astId":60,"contract":"Campaign.sol:Campaign","label":"campaignManager","offset":0,"slot":"1","type":"t_address"},{"astId":62,"contract":"Campaign.sol:Campaign","label":"minimumContribution","offset":0,"slot":"2","type":"t_uint256"},{"astId":66,"contract":"Campaign.sol:Campaign","label":"campaignContributors","offset":0,"slot":"3","type":"t_mapping(t_address,t_bool)"},{"astId":68,"contract":"Campaign.sol:Campaign","label":"campaignContributorsCount","offset":0,"slot":"4","type":"t_uint256"}],"types":{"t_address":{"encoding":"inplace","label":"address","numberOfBytes":"20"},"t_address_payable":{"encoding":"inplace","label":"address payable","numberOfBytes":"20"},"t_array(t_struct(SpendingRequest)54_storage)dyn_storage":{"base":"t_struct(SpendingRequest)54_storage","encoding":"dynamic_array","label":"struct Campaign.SpendingRequest[]","numberOfBytes":"32"},"t_bool":{"encoding":"inplace","label":"bool","numberOfBytes":"1"},"t_mapping(t_address,t_bool)":{"encoding":"mapping","key":"t_address","label":"mapping(address => bool)","numberOfBytes":"32","value":"t_bool"},"t_string_storage":{"encoding":"bytes","label":"string","numberOfBytes":"32"},"t_struct(SpendingRequest)54_storage":{"encoding":"inplace","label":"struct Campaign.SpendingRequest","members":[{"astId":41,"contract":"Campaign.sol:Campaign","label":"description","offset":0,"slot":"0","type":"t_string_storage"},{"astId":43,"contract":"Campaign.sol:Campaign","label":"value","offset":0,"slot":"1","type":"t_uint256"},{"astId":45,"contract":"Campaign.sol:Campaign","label":"recipient","offset":0,"slot":"2","type":"t_address_payable"},{"astId":47,"contract":"Campaign.sol:Campaign","label":"complete","offset":20,"slot":"2","type":"t_bool"},{"astId":49,"contract":"Campaign.sol:Campaign","label":"approvalCount","offset":0,"slot":"3","type":"t_uint256"},{"astId":53,"contract":"Campaign.sol:Campaign","label":"requestApprovers","offset":0,"slot":"4","type":"t_mapping(t_address,t_bool)"}],"numberOfBytes":"160"},"t_uint256":{"encoding":"inplace","label":"uint256","numberOfBytes":"32"}}},"userdoc":{"kind":"user","methods":{},"version":1}}